:100000000C9462000C948A000C948A000C948A0070
:100010000C948A000C948A000C948A000C948A0038
:100020000C948A000C948A000C948A000C948A0028
:100030000C948A000C948A000C948A000C948A0018
:100040000C94E00B0C948A000C94A90E0C948A007A
:100050000C948A000C948A000C948A000C948A00F8
:100060000C948A000C948A000000000024002700F1
:100070002A0000000000250028002B0000000000DE
:1000800023002600290004040404040404040202DA
:100090000202020203030303030301020408102007
:1000A0004080010204081020010204081020000012
:1000B0000007000201000003040600000000000029
:1000C0000000A50F11241FBECFEFD8E0DEBFCDBFCB
:1000D00012E0A0E0B1E0E6EBF0E202C005900D9284
:1000E000AA35B107D9F713E0AAE5B2E001C01D9225
:1000F000A430B107E1F710E0C4ECD0E004C02297CF
:10010000FE010E945510C23CD107C9F70E94E20CC3
:100110000C9459100C940000EF92FF920F931F93D0
:100120007B018C0120E030E040E05FE40E94380475
:1001300088238CF0C801B70120E030E040E05FE4A4
:100140000E9404020E94F6049B01AC012050304042
:100150004040504806C0C801B7010E94F6049B0108
:10016000AC01B901CA011F910F91FF90EF90089562
:10017000A0E0B0E0EEEBF0E00C941C10DC012B01F1
:10018000FA019C91923008F439C1EB0188818230E8
:1001900008F433C1943069F4843009F02FC111960A
:1001A0009C9111978981981709F428C1AFE2B1E0B9
:1001B00025C1843009F421C18230A9F4923009F0BC
:1001C0001DC19A01AD0188E0EA010990AE01E90183
:1001D00009929E018150C1F7E201898111969C919B
:1001E0008923818308C1923009F407C112962D90AA
:1001F0003C901397EB018A819B811496AD90BD9042
:10020000CD90DC901797EC80FD800E811F819101CD
:10021000281B390BB90137FF04C066277727621BFB
:10022000730B603271050CF061C0121613066CF589
:1002300037014801062E04C09694879477946794FA
:100240000A94D2F721E030E040E050E004C0220FF1
:10025000331F441F551F6A95D2F72150304040404C
:1002600050402E213F2140235123211531054105C6
:10027000510521F021E030E040E050E079018A01B1
:10028000E628F728082919293CC0232BD1F1260E8E
:10029000371E35014601062E04C096948794779444
:1002A00067940A94D2F721E030E040E050E004C0C7
:1002B000220F331F441F551F6A95D2F7215030403B
:1002C000404050402A213B214C215D212115310520
:1002D0004105510521F021E030E040E050E05901B6
:1002E0006A01A628B728C828D9280BC0821593050B
:1002F0002CF01C01AA24BB24650103C0EE24FF24BA
:10030000870111969C91D20111968C91981709F44E
:1003100045C0992339F0A80197012A193B094C09D6
:100320005D0906C0A60195012E193F09400B510B2E
:1003300057FD08C01182338222822483358346838D
:1003400057831DC081E081833382228288279927C9
:10035000DC01821B930BA40BB50B84839583A683CE
:10036000B7830DC0220F331F441F551F24833583CD
:10037000468357838281938101979383828324816B
:10038000358146815781DA01C9010197A109B10977
:100390008F5F9F4FAF4FBF4328F30BC091833382D2
:1003A0002282EA0CFB1C0C1D1D1DE482F5820683D3
:1003B000178383E08083248135814681578157FFED
:1003C0001AC0C901AA2797FDA095BA2F8170907015
:1003D000A070B0705695479537952795822B932B33
:1003E000A42BB52B84839583A683B78382819381C5
:1003F000019693838283DF0101C0D201CD01CDB785
:10040000DEB7E2E10C943810A0E2B0E0EAE0F2E0FE
:100410000C94281069837A838B839C832D833E837D
:100420004F835887E9E0EE2EF12CEC0EFD1ECE0135
:100430000196B7010E94E7068E010F5E1F4FCE01A5
:100440000596B8010E94E7068A8991E089278A8B80
:10045000C701B801AE01475E5F4F0E94B8000E941D
:100460001206A096E6E00C944410A0E2B0E0EBE3A4
:10047000F2E00C94281069837A838B839C832D830C
:100480003E834F835887F9E0EF2EF12CEC0EFD1ED2
:10049000CE010196B7010E94E7068E010F5E1F4F45
:1004A000CE010596B8010E94E706C701B801AE016A
:1004B000475E5F4F0E94B8000E941206A096E6E0D9
:1004C0000C944410A0E2B0E0E8E6F2E00C941C10BA
:1004D00069837A838B839C832D833E834F835887E4
:1004E000CE010196BE01675F7F4F0E94E706CE01F5
:1004F0000596BE016F5E7F4F0E94E7069985923098
:1005000088F089898230C8F0943019F4823051F42F
:1005100004C0843029F4923081F48FE291E0C6C0A7
:10052000923049F420E09A858A89981321E02A873D
:10053000CE010996BBC0823049F420E09A858A89B1
:10054000981321E02A8BCE014196B0C02D843E84C1
:100550004F8458886D887E888F88988CEE24FF247D
:100560008701AA24BB24650140E050E060E070E010
:10057000E0E0F0E0C10181709070892BE9F0E60CB9
:10058000F71C081D191D9A01AB012A0D3B1D4C1DBE
:100590005D1D80E090E0A0E0B0E0E614F7040805FF
:1005A000190520F481E090E0A0E0B0E0BA01A901D3
:1005B000480F591F6A1F7B1FAA0CBB1CCC1CDD1CDB
:1005C00097FE08C081E090E0A0E0B0E0A82AB92A38
:1005D000CA2ADB2A3196E032F10549F0660C771C15
:1005E000881C991C5694479437942794C3CFFA8556
:1005F000EA892B893C898B859C85280F391F2E5FC2
:100600003F4F17C0CA0181709070892B61F0169519
:100610000795F794E79480E090E0A0E0B0E8E82A3E
:10062000F92A0A2B1B2B76956795579547952F5FCF
:100630003F4F77FDE7CF0CC0440F551F661F771F54
:1006400017FD4160EE0CFF1C001F111F21503040B0
:10065000403090E0590790E0690790E4790760F333
:100660002B8F3C8FDB01CA018F779070A070B07028
:1006700080349105A105B10561F447FD0AC0E1147C
:10068000F1040105110529F0405C5F4F6F4F7F4F6A
:1006900040781A8EFE1711F081E08A8F4D8F5E8FA1
:1006A0006F8F78A383E0898FCE0149960E9412064E
:1006B000A096E2E10C943810A8E1B0E0E2E6F3E0A5
:1006C0000C94241069837A838B839C832D833E83CF
:1006D0004F835887B9E0EB2EF12CEC0EFD1ECE01B6
:1006E0000196B7010E94E7068E010F5E1F4FCE01F3
:1006F0000596B8010E94E7062985223008F47EC0DD
:100700003989323010F4B8017CC08A859A898927EA
:100710008A87243011F0223031F4231709F06EC09B
:100720006FE271E06EC0343039F41D861E861F867C
:10073000188A1C861B8604C0323021F484E0898725
:10074000B7015FC02B853C858B899C89281B390BA1
:100750003C872B87ED84FE840F851889AD88BE8881
:10076000CF88D88CEA14FB040C051D0540F4EE0C70
:10077000FF1C001F111F215030403C872B8720E0B9
:1007800030E040E050E080E090E0A0E0B0E460E0E5
:1007900070E0EA14FB040C051D0540F0282B392BF2
:1007A0004A2B5B2BEA18FB080C091D09B695A79587
:1007B00097958795EE0CFF1C001F111F6F5F7F4FF1
:1007C0006F31710531F7DA01C9018F779070A07030
:1007D000B07080349105A105B10561F427FD0AC010
:1007E000E114F1040105110529F0205C3F4F4F4F42
:1007F0005F4F20782D873E874F87588BBE01675FFC
:100800007F4FCB010E9412066896EAE00C944010DC
:10081000A8E1B0E0EEE0F4E00C94281069837A835C
:100820008B839C832D833E834F83588789E0E82EFA
:10083000F12CEC0EFD1ECE010196B7010E94E706D9
:100840008E010F5E1F4FCE010596B8010E94E7068C
:100850008985823040F08989823028F0C701B8014B
:100860000E945F0701C081E06896E6E00C944410A6
:10087000A8E1B0E0EEE3F4E00C94281069837A83F9
:100880008B839C832D833E834F83588789E0E82E9A
:10089000F12CEC0EFD1ECE010196B7010E94E70679
:1008A0008E010F5E1F4FCE010596B8010E94E7062C
:1008B0008985823040F08989823028F0C701B801EB
:1008C0000E945F0701C08FEF6896E6E00C94441029
:1008D000A8E1B0E0EEE6F4E00C94281069837A8396
:1008E0008B839C832D833E834F83588789E0E82E3A
:1008F000F12CEC0EFD1ECE010196B7010E94E70619
:100900008E010F5E1F4FCE010596B8010E94E706CB
:100910008985823040F08989823028F0C701B8018A
:100920000E945F0701C081E06896E6E00C944410E5
:10093000A8E0B0E0EEE9F4E00C9425109B01AC01D6
:1009400083E08983DA01C9018827B7FD8395992758
:10095000AA27BB27B82E211531054105510519F4E9
:1009600082E089833AC08823A9F0203080E03807EC
:1009700080E0480780E8580729F460E070E080E0F4
:100980009FEC30C0EE24FF248701E21AF30A040B27
:10099000150B02C079018A018EE1C82ED12CDC82B0
:1009A000CB82ED82FE820F831887C801B7010E94B7
:1009B000C30501971816190684F4082E04C0EE0C1E
:1009C000FF1C001F111F0A94D2F7ED82FE820F83D5
:1009D0001887C81AD90ADC82CB82BA82CE01019666
:1009E0000E9412062896E9E00C944110ACE0B0E0B9
:1009F000ECEFF4E00C942C1069837A838B839C8356
:100A0000CE010196BE016B5F7F4F0E94E7068D818C
:100A1000823061F1823050F1843021F48E8188235C
:100A200051F12EC02F81388537FD20C06E812F31C6
:100A300031051CF06623F9F023C08EE190E0821BA3
:100A4000930B29853A854B855C8504C0569547955F
:100A5000379527958A95D2F76623B1F05095409542
:100A6000309521953F4F4F4F5F4F0EC020E030E053
:100A700040E050E009C02FEF3FEF4FEF5FE704C0C9
:100A800020E030E040E050E8B901CA012C96E2E0F5
:100A90000C944810A8E0B0E0E0E5F5E00C942410D8
:100AA0007B018C01611571058105910519F482E0C6
:100AB000898360C083E089838EE1C82ED12CDC82DB
:100AC000CB82ED82FE820F831887C801B7010E9496
:100AD000C305FC013197F7FF3BC0222733272E1BAC
:100AE0003F0B57016801022E04C0D694C794B794F7
:100AF000A7940A94D2F740E050E060E070E081E013
:100B000090E0A0E0B0E004C0880F991FAA1FBB1FAF
:100B10002A95D2F70197A109B1098E219F21A0231F
:100B2000B1230097A105B10521F041E050E060E05C
:100B300070E04A295B296C297D294D835E836F8390
:100B400078878EE190E08E1B9F0B9C838B8312C075
:100B5000309781F00E2E04C0EE0CFF1C001F111FF9
:100B60000A94D2F7ED82FE820F831887CE1ADF0A2D
:100B7000DC82CB821A82CE0101960E941206289650
:100B8000EAE00C944010EF92FF920F931F937B01C9
:100B90008C0180E0E81680E0F80681E0080780E03C
:100BA000180788F48FEFE816F1040105110531F0FC
:100BB00028F088E090E0A0E0B0E017C080E090E08E
:100BC000A0E0B0E012C080E0E81680E0F80680E027
:100BD000080781E0180728F088E190E0A0E0B0E085
:100BE00004C080E190E0A0E0B0E020E230E040E02E
:100BF00050E0281B390B4A0B5B0B04C01695079578
:100C0000F794E7948A95D2F7F701E95CFE4F80816B
:100C1000281B310941095109C9011F910F91FF900A
:100C2000EF900895DF92EF92FF920F931F93FC01D4
:100C3000E480F58006811781D1808081823048F47C
:100C400080E090E0A0E1B0E0E82AF92A0A2B1B2B13
:100C5000A5C0843009F49FC0823021F4EE24FF2423
:100C6000870105C0E114F1040105110519F4E0E064
:100C7000F0E096C0628173819FEF623879070CF0D3
:100C80005BC022E83FEF261B370B2A3131052CF0E1
:100C900020E030E040E050E02AC0B801A701022E79
:100CA00004C076956795579547950A94D2F781E0E9
:100CB00090E0A0E0B0E004C0880F991FAA1FBB1FFE
:100CC0002A95D2F70197A109B1098E219F21A0236E
:100CD000B1230097A105B10521F081E090E0A0E0EB
:100CE000B0E09A01AB01282B392B4A2B5B2BDA01A0
:100CF000C9018F779070A070B07080349105A10504
:100D0000B10539F427FF09C0205C3F4F4F4F5F4FBB
:100D100004C0215C3F4F4F4F5F4FE0E0F0E02030D8
:100D2000A0E03A07A0E04A07A0E45A0710F0E1E08B
:100D3000F0E079018A0127C06038710564F5FB0194
:100D4000E158FF4FD801C7018F779070A070B07045
:100D500080349105A105B10539F4E7FE0DC080E4AA
:100D600090E0A0E0B0E004C08FE390E0A0E0B0E04D
:100D7000E80EF91E0A1F1B1F17FF05C016950795E1
:100D8000F794E794319687E016950795F794E794E2
:100D90008A95D1F705C0EE24FF248701EFEFF0E03C
:100DA0006E2F679566276795902F9F77D794DD24E0
:100DB000D7948E2F8695492F462B582F5D29B70142
:100DC000CA011F910F91FF90EF90DF900895FC01F1
:100DD000DB01408151812281622F6F7770E0221FF9
:100DE0002227221F9381892F880F822B282F30E002
:100DF000991F9927991F11969C93119721153105D9
:100E0000A9F5411551056105710511F482E037C05E
:100E100082E89FEF13969C938E9312979A01AB01F1
:100E200067E0220F331F441F551F6A95D1F783E0F7
:100E30008C930DC0220F331F441F551F12968D91A6
:100E40009C911397019713969C938E931297203041
:100E500080E0380780E0480780E4580758F314968C
:100E60002D933D934D935C93179708952F3F310534
:100E700079F4411551056105710519F484E08C93ED
:100E8000089564FF03C081E08C9312C01C9210C0CF
:100E90002F57304013963C932E93129783E08C93F8
:100EA00087E0440F551F661F771F8A95D1F770643E
:100EB00014964D935D936D937C93179708951F93AC
:100EC000DC01FB019C91923008F447C080818230A4
:100ED00008F443C0943051F411961C91843099F574
:100EE0008181682F70E0611B71093FC0843021F05F
:100EF000923031F48230B9F18181882389F12DC09B
:100F000011961C9111978230F1F081811817D9F454
:100F100012962D913C9113978281938182179307AA
:100F200094F028173907BCF014968D919D910D907F
:100F3000BC91A02D2481358146815781281739071E
:100F40004A075B0718F4112341F00AC08217930780
:100F5000A407B50740F4112319F061E070E005C063
:100F60006FEF7FEF02C060E070E0CB011F9108954A
:100F7000CF93DF93BC018230910510F462E070E002
:100F8000A0910203B0910303ED01E0E0F0E040E046
:100F900050E021C0888199818617970769F48A817A
:100FA0009B81309719F09383828304C0909303034D
:100FB00080930203FE0134C06817790738F44115A5
:100FC000510519F08417950708F4AC01FE018A81D8
:100FD0009B819C01E9012097E9F641155105A9F192
:100FE000CA01861B970B049708F4BA01E0E0F0E011
:100FF0002AC08D919C91119784179507F9F4641775
:10100000750781F412968D919C911397309719F082
:101010009383828304C09093030380930203FD01B2
:1010200032964CC0CA01861B970BFD01E80FF91FD1
:101030006193719302978D939C9340C0FD018281CF
:1010400093819C01D9011097A1F6809100039091A2
:101050000103892B41F48091390290913A029093D7
:1010600001038093000340913B0250913C024115E3
:10107000510541F44DB75EB7809137029091380227
:10108000481B590B2091000330910103CA01821BB8
:10109000930B8617970780F0AB014E5F5F4F841765
:1010A000950750F0420F531F5093010340930003E4
:1010B000F9016193719302C0E0E0F0E0CF01DF91AC
:1010C000CF910895CF93DF93009709F450C0EC01BE
:1010D00022971B821A82A0910203B09103031097FA
:1010E00009F140E050E0AC17BD0708F1BB83AA83CB
:1010F000FE0121913191E20FF31FAE17BF0779F482
:101100008D919C911197280F391F2E5F3F4F398386
:10111000288312968D919C9113979B838A83411506
:10112000510571F4D0930303C093020320C01296BB
:101130008D919C911397AD01009711F0DC01D3CFF5
:10114000FA01D383C28321913191E20FF31FCE17AD
:10115000DF0769F488819981280F391F2E5F3F4F7F
:10116000FA01318320838A819B8193838283DF917B
:10117000CF9108950F931F930DEE12E0C8016EEF0B
:1011800070E040E050E00E94070EC80161E070E0AE
:1011900040E050E00E94070E6AE070E080E090E0DE
:1011A0000E94280C1F910F9108950F931F938C019B
:1011B00085E090E0F8019183808389E090E0978B4F
:1011C000868B87E090E0918F808F48EC50E05583CC
:1011D000448328E833E1378326832CE231E03187EA
:1011E000208753874287108A21E0218B1786168635
:1011F00061E00E94BC0CF801868961E00E94BC0C91
:101200001F910F9108958F929F92AF92BF92CF92AC
:10121000DF92EF92FF920F931F93DF93CF93CDB79F
:10122000DEB72A970FB6F894DEBF0FBECDBF009190
:101230005C0210915D02D8018C910E94BE0BF801F6
:1012400084839583AC01DE011196EEE3F2E08AE03F
:1012500001900D928150E1F7D80112966D917C9129
:101260001397FE01319620E030E007C08191919103
:101270004817590738F02F5F3F4F26173707B4F349
:101280002FEF3FEFF801318720878285938528175C
:10129000390709F4D5C062E370E080E090E00E9475
:1012A000280CD8018C910E94BE0BF8018483958391
:1012B000AC01DE011196EEE3F2E08AE001900D92BE
:1012C0008150E1F7D80112966D917C911397FE0140
:1012D000319620E030E007C081919191481759077D
:1012E00038F02F5F3F4F26173707B4F32FEF3FEF4C
:1012F000F80131872087828593852817390709F4FB
:101300009FC03387228737FF1EC19AC0E0915A02DF
:10131000F0915B0281E082830580F681E02D2289D5
:101320003389808991890197281739072CF42F5F19
:101330003F4F338B228B84C0138A128A81C0E09185
:101340005A02F0915B0281E082830580F681E02DF4
:10135000828993891816190614F08089918901975A
:10136000938B828B6DC0E0915A02F0915B0281E019
:1013700082830580F681E02D2289338937FD0CC0F8
:1013800080899189281739073CF4220F331FE20F17
:10139000F31F8080918005C083E190E00E94B80730
:1013A0004C01D4011296ED90FD900D911C91159772
:1013B000C801B70116962D913D914D915C911997F9
:1013C0002EC0E0915A02F0915B0281E08283058099
:1013D000F681E02D2289338937FD0CC080899189FF
:1013E000281739073CF4220F331FE20FF31F8080C8
:1013F000918005C083E190E00E94B8074C01D401C0
:101400001296ED90FD900D911C91159716962D91C9
:101410003D914D915C9119975058C801B7010E94B8
:1014200035025B016C01C801B701A60195010E945C
:101430000804882329F0F401A282B382C482D582F1
:1014400000915A0210915B02D80112968C9112976A
:10145000882309F45FC012961C92C8010E94BA0842
:10146000D8011596ED91FC9116972289338937FDA5
:101470000CC080899189281739073CF4220F331F4B
:10148000E20FF31F0081118105C083E190E00E940B
:10149000B8078C018DEE92E06EEF70E040E050E016
:1014A0000E94070E8DEE92E060E870E040E050E0B0
:1014B0000E94070E6AE070E080E090E00E94280C35
:1014C000F801608171818DEE92E00E94200D8DEE19
:1014D00092E06EEF70E040E050E00E94070E8DEE6B
:1014E00092E060EC70E040E050E00E94070E6AE09D
:1014F00070E080E090E00E94280CD80112964D9197
:101500005D916D917C9115978DEE92E022E030E037
:101510000E94A60E64E670E080E090E00E94280C35
:101520002A960FB6F894DEBF0FBECDBFCF91DF91E4
:101530001F910F91FF90EF90DF90CF90BF90AF90F1
:101540009F908F9008952230310509F4DFCE23302B
:1015500031052CF42130310509F072CF04CF23304E
:10156000310509F4ECCE2430310509F069CF29CFDB
:10157000FF920F931F93CF93DF938DEE92E040E89D
:1015800055E260E070E00E94DA0E87E090E00E9491
:10159000B8078C01FF24F394DC011296FC920E94A0
:1015A000BA088DEE92E06CE770E040E050E00E94F7
:1015B000070E8DEE92E06DE970E040E050E00E9491
:1015C000070E6AE070E080E090E00E94280CF801CD
:1015D0001682158210935B0200935A028CE090E011
:1015E0000E94B807FC011182108285E090E093838D
:1015F00082838FEF9FEF91878087938782871782FF
:101600001682F0935D02E0935C028AE190E00E9412
:10161000B807182F092F6CE070E04DE050E00E94F1
:10162000D50810935E0200935F0200915A02109158
:101630005B0284E190E00E94B807FC01118A108AE5
:10164000138A128AD80114969C938E931397169638
:101650009C938E931597E0915A02F0915B0205815D
:10166000168183E190E00E94B807EC0180E091E0F0
:101670009983888380E090E0A0EAB0E48A839B832A
:10168000AC83BD8380E090E0A0E8BFE38E839F83BE
:10169000A887B987FA86F8018089918988309105F1
:1016A0006CF4FC01EE0FFF1FE00FF11FD183C0832C
:1016B0000196D80151969C938E93509783E190E0C8
:1016C0000E94B807EC0183E191E09983888380E070
:1016D00090E0A0E8BFE38A839B83AC83BD838E83C5
:1016E0009F83A887B98781E08A87F80180899189DB
:1016F000883091056CF4FC01EE0FFF1FE00FF11F25
:10170000D183C0830196D80151969C938E935097B4
:1017100083E190E00E94B807EC018CE191E09983AD
:10172000888380E090E0A0E8BFE38A839B83AC835A
:10173000BD838E839F83A887B98781E08A87F8015C
:1017400080899189883091056CF4FC01EE0FFF1FB0
:10175000E00FF11FD183C0830196D80151969C936D
:101760008E9350978DEE92E066E271E00E94200D1C
:10177000DF91CF911F910F91FF900895982F8E3098
:1017800008F09E50977080913D028295880F880FD7
:10179000807C892B80937C0080917A008064809388
:1017A0007A0080917A0086FDFCCF209178004091EC
:1017B0007900942F80E030E0282B392BC90108955F
:1017C0001F920F920FB60F9211242F933F938F9376
:1017D0009F93AF93BF938091640290916502A09113
:1017E0006602B0916702309168020196A11DB11D99
:1017F000232F2D5F2D3720F02D570196A11DB11DF0
:10180000209368028093640290936502A09366021D
:10181000B09367028091600290916102A091620290
:10182000B09163020196A11DB11D80936002909357
:101830006102A0936202B0936302BF91AF919F9146
:101840008F913F912F910F900FBE0F901F90189581
:101850009B01AC017FB7F894809160029091610286
:10186000A0916202B091630266B5A89B05C06F3F6C
:1018700019F00196A11DB11D7FBFBA2FA92F982F76
:101880008827860F911DA11DB11D62E0880F991F49
:10189000AA1FBB1F6A95D1F7BC012DC0FFB7F894F2
:1018A0008091600290916102A0916202B091630206
:1018B000E6B5A89B05C0EF3F19F00196A11DB11D2B
:1018C000FFBFBA2FA92F982F88278E0F911DA11D1A
:1018D000B11DE2E0880F991FAA1FBB1FEA95D1F73F
:1018E000861B970B885E9340C8F2215030404040E1
:1018F000504068517C4F211531054105510571F665
:101900000895789484B5826084BD84B5816084BD77
:1019100085B5826085BD85B5816085BDEEE6F0E068
:10192000808181608083E1E8F0E0108280818260C4
:101930008083808181608083E0E8F0E08081816045
:101940008083E1EBF0E0808184608083E0EBF0E075
:10195000808181608083EAE7F0E080818460808319
:1019600080818260808380818160808380818068C3
:1019700080831092C1000895482F50E0CA01865616
:101980009F4FFC0124914A575F4FFA0184918823AD
:10199000C1F0E82FF0E0EE0FFF1FE859FF4FA591CF
:1019A000B491662341F49FB7F8948C9120958223DB
:1019B0008C939FBF08959FB7F8948C91822B8C9342
:1019C0009FBF08950E94810C0E94B80A0E940309DB
:1019D000FDCF0F931F93CF93DF938C01EB0109C0D1
:1019E0002196D801ED91FC910190F081E02DC80184
:1019F000099568816623A1F7DF91CF911F910F911F
:101A00000895EF92FF920F931F93CF93DF938C0172
:101A10007B01EA010CC0D7016D917D01D801ED91E8
:101A2000FC910190F081E02DC80109952197209744
:101A300091F7DF91CF911F910F91FF90EF90089553
:101A4000DC01ED91FC910280F381E02D0995089570
:101A50002F923F924F925F926F927F928F929F92BE
:101A6000AF92BF92CF92DF92EF92FF920F931F93AC
:101A7000DF93CF93CDB7DEB7A0970FB6F894DEBF54
:101A80000FBECDBF1C016A017B01411551056105E7
:101A9000710549F440E350E060E070E020E030E0A0
:101AA0000E94D10D56C0882499245401422E5524F9
:101AB0006624772401E010E00C0F1D1F080D191D8E
:101AC000C701B601A30192010E94DF0FF8016083F4
:101AD0000894811C911CA11CB11CC701B601A30173
:101AE00092010E94DF0FC901DA016C017D01C1146E
:101AF000D104E104F104F1F681E0E82EF12CEC0EC2
:101B0000FD1EE80CF91C3E010894611C711CD501F6
:101B1000C4010197A109B1096C01C818D90816C000
:101B2000F601EE0DFF1D40814A3010F4405D01C00A
:101B3000495C552747FD5095652F752FC10120E061
:101B400030E00E94D10D0894E108F1086E147F0482
:101B500039F7A0960FB6F894DEBF0FBECDBFCF9178
:101B6000DF911F910F91FF90EF90DF90CF90BF908A
:101B7000AF909F908F907F906F905F904F903F902D
:101B80002F900895DC012115310541F4ED91FC9170
:101B90000190F081E02D642F099508950E94280D91
:101BA0000895EF92FF920F931F93CF93DF93EC0171
:101BB0007A018B012115310541F4E881F981019009
:101BC000F081E02D642F09951BC02A303105B1F456
:101BD00077FF10C04DE250E060E070E020E030E0C0
:101BE0000E94D10D10950095F094E094E11CF11C39
:101BF000011D111DCE01B801A7012AE00E94280D88
:101C0000DF91CF911F910F91FF90EF900895EF9288
:101C1000FF920F931F937B019A010027F7FC009519
:101C2000102FB801A7010E94D10D1F910F91FF90B5
:101C3000EF9008959F92AF92BF92CF92DF92EF9272
:101C4000FF920F931F93CF93DF93EC017A018B01E7
:101C5000922ECB01BA0120E030E040E050E00E943B
:101C6000680488236CF4CE014DE250E060E070E03F
:101C700020E030E00E94D10D17FB109517F9109568
:101C800020E030E040E05FE3AA240BC0CA01B901C4
:101C900020E030E040E251E40E945C039B01AC0193
:101CA000A394A91498F3C801B7010E9435025B01FF
:101CB0006C010E948C007B018C01CE01B801A70150
:101CC0002AE030E00E94C20D992029F0CE016DE299
:101CD00071E00E94200DC801B7010E944A059B01D6
:101CE000AC01C601B5010E94040222C020E030E030
:101CF00040E251E40E9462027B018C010E94F604E2
:101D00005B016C01CC24B7FCC094DC2CCE01B60185
:101D1000A5012AE030E00E94D10DC601B5010E9464
:101D200098049B01AC01C801B7010E9404029A9477
:101D30009920E1F6DF91CF911F910F91FF90EF90E5
:101D4000DF90CF90BF90AF909F9008950E941A0EA1
:101D500008951F920F920FB60F9211242F933F9365
:101D60004F938F939F93EF93FF934091C600E09121
:101D7000E902F091EA0231969F012F773070319796
:101D80008091EB029091EC022817390739F0E7595E
:101D9000FD4F40833093EA022093E902FF91EF91D7
:101DA0009F918F914F913F912F910F900FBE0F9068
:101DB0001F901895CF93DF93EC019A01AB01E88552
:101DC000F985203081EE380780E0480780E0580729
:101DD00009F449C081E090E00A8802C0880F991F89
:101DE0000A94E2F7808360E079E08DE390E00E945E
:101DF00001102150304040405040CA01B90122E05A
:101E000030E040E050E00E940110EC81FD81308321
:101E1000EE81FF812083EA85FB85208141E050E04F
:101E2000CA010E8402C0880F991F0A94E2F7282B7A
:101E30002083EA85FB852081CA010F8402C0880FB8
:101E4000991F0A94E2F7282B2083EA85FB8580817D
:101E5000088802C0440F551F0A94E2F7842B808340
:101E6000DF91CF910895108220E130E0CECFDC01E8
:101E70001296ED91FC911397E058FF4F219131910B
:101E800080819181281B390B2F773070C90108950B
:101E9000DC011296ED91FC911397EE57FF4F2081D4
:101EA000318192918291E058F0408217930719F4A2
:101EB0002FEF3FEF05C0E20FF31F8081282F30E0A6
:101EC000C9010895DC011296ED91FC911397DF0191
:101ED000AE57BF4F2D913C911197E058FF4F808135
:101EE0009181E058F0408217930719F42FEF3FEFEC
:101EF0000BC0E20FF31F80812F5F3F4F2F773070B1
:101F00002D933C93282F30E0C9010895DC011296EF
:101F1000ED91FC911397EE57FF4F80819181929341
:101F200082930895FC01A085B18521898C9190E070
:101F3000022E02C0959587950A94E2F780FFF6CFAE
:101F40000484F585E02D608308958CE492E09093FD
:101F5000EE028093ED0289E692E09093F002809386
:101F6000EF0285EC90E09093F2028093F10284EC12
:101F700090E09093F4028093F30280EC90E09093D1
:101F8000F6028093F50281EC90E09093F802809342
:101F9000F70286EC90E09093FA028093F90284E0D5
:101FA0008093FB0283E08093FC0287E08093FD0234
:101FB00085E08093FE0281E08093FF020895A1E214
:101FC0001A2EAA1BBB1BFD010DC0AA1FBB1FEE1FB3
:101FD000FF1FA217B307E407F50720F0A21BB30BFE
:101FE000E40BF50B661F771F881F991F1A9469F77A
:101FF00060957095809590959B01AC01BD01CF01D6
:10200000089597FB092E05260ED057FD04D0D7DF83
:102010000AD0001C38F450954095309521953F4FDB
:102020004F4F5F4F0895F6F79095809570956195A5
:102030007F4F8F4F9F4F08952F923F924F925F9205
:102040006F927F928F929F92AF92BF92CF92DF92C8
:10205000EF92FF920F931F93CF93DF93CDB7DEB72D
:10206000CA1BDB0B0FB6F894DEBF0FBECDBF0994C1
:102070002A88398848885F846E847D848C849B8418
:10208000AA84B984C884DF80EE80FD800C811B8126
:10209000AA81B981CE0FD11D0FB6F894DEBF0FBE55
:1020A000CDBFED010895EE0FFF1F0590F491E02DD7
:0620B0000994F894FFCF33
:1020B600496E74657276616C20287365636F6E6411
:1020C6007329004578706F73757265004974656D84
:1020D60020466F757200746573742E2E002E0000F4
:1020E60000000000000000000102020303030304D5
:1020F6000404040404040405050505050505050591
:102106000505050505050506060606060606060670
:102116000606060606060606060606060606060659
:102126000606060606060607070707070707070740
:102136000707070707070707070707070707070729
:102146000707070707070707070707070707070719
:102156000707070707070707070707070707070709
:1021660007070707070707080808080808080808F0
:1021760008080808080808080808080808080808D9
:1021860008080808080808080808080808080808C9
:1021960008080808080808080808080808080808B9
:1021A60008080808080808080808080808080808A9
:1021B6000808080808080808080808080808080899
:1021C6000808080808080808080808080808080889
:1021D6000808080808080808080808080808080879
:1021E6000808080808080820000403000001320057
:1021F600C80090015802200300000000920FE90C6D
:0A220600010D370F620F480F860F1D
:00000001FF
