:100000000C9462000C948A000C948A000C948A0070
:100010000C948A000C948A000C948A000C948A0038
:100020000C948A000C948A000C948A000C948A0028
:100030000C948A000C948A000C948A000C948A0018
:100040000C9464110C948A000C9493140C948A0000
:100050000C948A000C948A000C948A000C948A00F8
:100060000C948A000C948A000000000024002700F1
:100070002A0000000000250028002B0000000000DE
:1000800023002600290004040404040404040202DA
:100090000202020203030303030301020408102007
:1000A0004080010204081020010204081020000012
:1000B0000007000201000003040600000000000029
:1000C00000008F1511241FBECFEFD8E0DEBFCDBFDB
:1000D00012E0A0E0B1E0EAE8FCE202C005900D9277
:1000E000A237B107D9F713E0A2E7B2E001C01D9231
:1000F000AC31B107E1F710E0C4ECD0E004C02297C6
:10010000FE010E943F16C23CD107C9F70E94CC12E3
:100110000C9443160C940000EF92FF920F931F93E0
:100120007B018C0120E030E040E05FE40E94380475
:1001300088238CF0C801B70120E030E040E05FE4A4
:100140000E9404020E94F6049B01AC012050304042
:100150004040504806C0C801B7010E94F6049B0108
:10016000AC01B901CA011F910F91FF90EF90089562
:10017000A0E0B0E0EEEBF0E00C940616DC012B0101
:10018000FA019C91923008F439C1EB0188818230E8
:1001900008F433C1943069F4843009F02FC111960A
:1001A0009C9111978981981709F428C1A6E3B1E0C1
:1001B00025C1843009F421C18230A9F4923009F0BC
:1001C0001DC19A01AD0188E0EA010990AE01E90183
:1001D00009929E018150C1F7E201898111969C919B
:1001E0008923818308C1923009F407C112962D90AA
:1001F0003C901397EB018A819B811496AD90BD9042
:10020000CD90DC901797EC80FD800E811F819101CD
:10021000281B390BB90137FF04C066277727621BFB
:10022000730B603271050CF061C0121613066CF589
:1002300037014801062E04C09694879477946794FA
:100240000A94D2F721E030E040E050E004C0220FF1
:10025000331F441F551F6A95D2F72150304040404C
:1002600050402E213F2140235123211531054105C6
:10027000510521F021E030E040E050E079018A01B1
:10028000E628F728082919293CC0232BD1F1260E8E
:10029000371E35014601062E04C096948794779444
:1002A00067940A94D2F721E030E040E050E004C0C7
:1002B000220F331F441F551F6A95D2F7215030403B
:1002C000404050402A213B214C215D212115310520
:1002D0004105510521F021E030E040E050E05901B6
:1002E0006A01A628B728C828D9280BC0821593050B
:1002F0002CF01C01AA24BB24650103C0EE24FF24BA
:10030000870111969C91D20111968C91981709F44E
:1003100045C0992339F0A80197012A193B094C09D6
:100320005D0906C0A60195012E193F09400B510B2E
:1003300057FD08C01182338222822483358346838D
:1003400057831DC081E081833382228288279927C9
:10035000DC01821B930BA40BB50B84839583A683CE
:10036000B7830DC0220F331F441F551F24833583CD
:10037000468357838281938101979383828324816B
:10038000358146815781DA01C9010197A109B10977
:100390008F5F9F4FAF4FBF4328F30BC091833382D2
:1003A0002282EA0CFB1C0C1D1D1DE482F5820683D3
:1003B000178383E08083248135814681578157FFED
:1003C0001AC0C901AA2797FDA095BA2F8170907015
:1003D000A070B0705695479537952795822B932B33
:1003E000A42BB52B84839583A683B78382819381C5
:1003F000019693838283DF0101C0D201CD01CDB785
:10040000DEB7E2E10C942216A0E2B0E0EAE0F2E00E
:100410000C94121669837A838B839C832D833E838D
:100420004F835887E9E0EE2EF12CEC0EFD1ECE0135
:100430000196B7010E94E7068E010F5E1F4FCE01A5
:100440000596B8010E94E7068A8991E089278A8B80
:10045000C701B801AE01475E5F4F0E94B8000E941D
:100460001206A096E6E00C942E16A0E2B0E0EBE3B4
:10047000F2E00C94121669837A838B839C832D831C
:100480003E834F835887F9E0EF2EF12CEC0EFD1ED2
:10049000CE010196B7010E94E7068E010F5E1F4F45
:1004A000CE010596B8010E94E706C701B801AE016A
:1004B000475E5F4F0E94B8000E941206A096E6E0D9
:1004C0000C942E16A0E2B0E0E8E6F2E00C940616DA
:1004D00069837A838B839C832D833E834F835887E4
:1004E000CE010196BE01675F7F4F0E94E706CE01F5
:1004F0000596BE016F5E7F4F0E94E7069985923098
:1005000088F089898230C8F0943019F4823051F42F
:1005100004C0843029F4923081F486E391E0C6C0AF
:10052000923049F420E09A858A89981321E02A873D
:10053000CE010996BBC0823049F420E09A858A89B1
:10054000981321E02A8BCE014196B0C02D843E84C1
:100550004F8458886D887E888F88988CEE24FF247D
:100560008701AA24BB24650140E050E060E070E010
:10057000E0E0F0E0C10181709070892BE9F0E60CB9
:10058000F71C081D191D9A01AB012A0D3B1D4C1DBE
:100590005D1D80E090E0A0E0B0E0E614F7040805FF
:1005A000190520F481E090E0A0E0B0E0BA01A901D3
:1005B000480F591F6A1F7B1FAA0CBB1CCC1CDD1CDB
:1005C00097FE08C081E090E0A0E0B0E0A82AB92A38
:1005D000CA2ADB2A3196E032F10549F0660C771C15
:1005E000881C991C5694479437942794C3CFFA8556
:1005F000EA892B893C898B859C85280F391F2E5FC2
:100600003F4F17C0CA0181709070892B61F0169519
:100610000795F794E79480E090E0A0E0B0E8E82A3E
:10062000F92A0A2B1B2B76956795579547952F5FCF
:100630003F4F77FDE7CF0CC0440F551F661F771F54
:1006400017FD4160EE0CFF1C001F111F21503040B0
:10065000403090E0590790E0690790E4790760F333
:100660002B8F3C8FDB01CA018F779070A070B07028
:1006700080349105A105B10561F447FD0AC0E1147C
:10068000F1040105110529F0405C5F4F6F4F7F4F6A
:1006900040781A8EFE1711F081E08A8F4D8F5E8FA1
:1006A0006F8F78A383E0898FCE0149960E9412064E
:1006B000A096E2E10C942216A8E1B0E0E2E6F3E0B5
:1006C0000C940E1669837A838B839C832D833E83DF
:1006D0004F835887B9E0EB2EF12CEC0EFD1ECE01B6
:1006E0000196B7010E94E7068E010F5E1F4FCE01F3
:1006F0000596B8010E94E7062985223008F47EC0DD
:100700003989323010F4B8017CC08A859A898927EA
:100710008A87243011F0223031F4231709F06EC09B
:1007200066E371E06EC0343039F41D861E861F8684
:10073000188A1C861B8604C0323021F484E0898725
:10074000B7015FC02B853C858B899C89281B390BA1
:100750003C872B87ED84FE840F851889AD88BE8881
:10076000CF88D88CEA14FB040C051D0540F4EE0C70
:10077000FF1C001F111F215030403C872B8720E0B9
:1007800030E040E050E080E090E0A0E0B0E460E0E5
:1007900070E0EA14FB040C051D0540F0282B392BF2
:1007A0004A2B5B2BEA18FB080C091D09B695A79587
:1007B00097958795EE0CFF1C001F111F6F5F7F4FF1
:1007C0006F31710531F7DA01C9018F779070A07030
:1007D000B07080349105A105B10561F427FD0AC010
:1007E000E114F1040105110529F0205C3F4F4F4F42
:1007F0005F4F20782D873E874F87588BBE01675FFC
:100800007F4FCB010E9412066896EAE00C942A16EC
:10081000A8E1B0E0EEE0F4E00C94121669837A836C
:100820008B839C832D833E834F83588789E0E82EFA
:10083000F12CEC0EFD1ECE010196B7010E94E706D9
:100840008E010F5E1F4FCE010596B8010E94E7068C
:100850008985823040F08989823028F0C701B8014B
:100860000E945F0701C081E06896E6E00C942E16B6
:10087000A8E1B0E0EEE3F4E00C94121669837A8309
:100880008B839C832D833E834F83588789E0E82E9A
:10089000F12CEC0EFD1ECE010196B7010E94E70679
:1008A0008E010F5E1F4FCE010596B8010E94E7062C
:1008B0008985823040F08989823028F0C701B801EB
:1008C0000E945F0701C08FEF6896E6E00C942E1639
:1008D000A8E1B0E0EEE6F4E00C94121669837A83A6
:1008E0008B839C832D833E834F83588789E0E82E3A
:1008F000F12CEC0EFD1ECE010196B7010E94E70619
:100900008E010F5E1F4FCE010596B8010E94E706CB
:100910008985823040F08989823028F0C701B8018A
:100920000E945F0701C081E06896E6E00C942E16F5
:10093000A8E0B0E0EEE9F4E00C940F169B01AC01E6
:1009400083E08983DA01C9018827B7FD8395992758
:10095000AA27BB27B82E211531054105510519F4E9
:1009600082E089833AC08823A9F0203080E03807EC
:1009700080E0480780E8580729F460E070E080E0F4
:100980009FEC30C0EE24FF248701E21AF30A040B27
:10099000150B02C079018A018EE1C82ED12CDC82B0
:1009A000CB82ED82FE820F831887C801B7010E94B7
:1009B000C30501971816190684F4082E04C0EE0C1E
:1009C000FF1C001F111F0A94D2F7ED82FE820F83D5
:1009D0001887C81AD90ADC82CB82BA82CE01019666
:1009E0000E9412062896E9E00C942B16ACE0B0E0C9
:1009F000ECEFF4E00C94161669837A838B839C8366
:100A0000CE010196BE016B5F7F4F0E94E7068D818C
:100A1000823061F1823050F1843021F48E8188235C
:100A200051F12EC02F81388537FD20C06E812F31C6
:100A300031051CF06623F9F023C08EE190E0821BA3
:100A4000930B29853A854B855C8504C0569547955F
:100A5000379527958A95D2F76623B1F05095409542
:100A6000309521953F4F4F4F5F4F0EC020E030E053
:100A700040E050E009C02FEF3FEF4FEF5FE704C0C9
:100A800020E030E040E050E8B901CA012C96E2E0F5
:100A90000C943216A8E0B0E0E0E5F5E00C940E16F8
:100AA0007B018C01611571058105910519F482E0C6
:100AB000898360C083E089838EE1C82ED12CDC82DB
:100AC000CB82ED82FE820F831887C801B7010E9496
:100AD000C305FC013197F7FF3BC0222733272E1BAC
:100AE0003F0B57016801022E04C0D694C794B794F7
:100AF000A7940A94D2F740E050E060E070E081E013
:100B000090E0A0E0B0E004C0880F991FAA1FBB1FAF
:100B10002A95D2F70197A109B1098E219F21A0231F
:100B2000B1230097A105B10521F041E050E060E05C
:100B300070E04A295B296C297D294D835E836F8390
:100B400078878EE190E08E1B9F0B9C838B8312C075
:100B5000309781F00E2E04C0EE0CFF1C001F111FF9
:100B60000A94D2F7ED82FE820F831887CE1ADF0A2D
:100B7000DC82CB821A82CE0101960E941206289650
:100B8000EAE00C942A16EF92FF920F931F937B01D9
:100B90008C0180E0E81680E0F80681E0080780E03C
:100BA000180788F48FEFE816F1040105110531F0FC
:100BB00028F088E090E0A0E0B0E017C080E090E08E
:100BC000A0E0B0E012C080E0E81680E0F80680E027
:100BD000080781E0180728F088E190E0A0E0B0E085
:100BE00004C080E190E0A0E0B0E020E230E040E02E
:100BF00050E0281B390B4A0B5B0B04C01695079578
:100C0000F794E7948A95D2F7F701E25CFE4F808172
:100C1000281B310941095109C9011F910F91FF900A
:100C2000EF900895DF92EF92FF920F931F93FC01D4
:100C3000E480F58006811781D1808081823048F47C
:100C400080E090E0A0E1B0E0E82AF92A0A2B1B2B13
:100C5000A5C0843009F49FC0823021F4EE24FF2423
:100C6000870105C0E114F1040105110519F4E0E064
:100C7000F0E096C0628173819FEF623879070CF0D3
:100C80005BC022E83FEF261B370B2A3131052CF0E1
:100C900020E030E040E050E02AC0B801A701022E79
:100CA00004C076956795579547950A94D2F781E0E9
:100CB00090E0A0E0B0E004C0880F991FAA1FBB1FFE
:100CC0002A95D2F70197A109B1098E219F21A0236E
:100CD000B1230097A105B10521F081E090E0A0E0EB
:100CE000B0E09A01AB01282B392B4A2B5B2BDA01A0
:100CF000C9018F779070A070B07080349105A10504
:100D0000B10539F427FF09C0205C3F4F4F4F5F4FBB
:100D100004C0215C3F4F4F4F5F4FE0E0F0E02030D8
:100D2000A0E03A07A0E04A07A0E45A0710F0E1E08B
:100D3000F0E079018A0127C06038710564F5FB0194
:100D4000E158FF4FD801C7018F779070A070B07045
:100D500080349105A105B10539F4E7FE0DC080E4AA
:100D600090E0A0E0B0E004C08FE390E0A0E0B0E04D
:100D7000E80EF91E0A1F1B1F17FF05C016950795E1
:100D8000F794E794319687E016950795F794E794E2
:100D90008A95D1F705C0EE24FF248701EFEFF0E03C
:100DA0006E2F679566276795902F9F77D794DD24E0
:100DB000D7948E2F8695492F462B582F5D29B70142
:100DC000CA011F910F91FF90EF90DF900895FC01F1
:100DD000DB01408151812281622F6F7770E0221FF9
:100DE0002227221F9381892F880F822B282F30E002
:100DF000991F9927991F11969C93119721153105D9
:100E0000A9F5411551056105710511F482E037C05E
:100E100082E89FEF13969C938E9312979A01AB01F1
:100E200067E0220F331F441F551F6A95D1F783E0F7
:100E30008C930DC0220F331F441F551F12968D91A6
:100E40009C911397019713969C938E931297203041
:100E500080E0380780E0480780E4580758F314968C
:100E60002D933D934D935C93179708952F3F310534
:100E700079F4411551056105710519F484E08C93ED
:100E8000089564FF03C081E08C9312C01C9210C0CF
:100E90002F57304013963C932E93129783E08C93F8
:100EA00087E0440F551F661F771F8A95D1F770643E
:100EB00014964D935D936D937C93179708951F93AC
:100EC000DC01FB019C91923008F447C080818230A4
:100ED00008F443C0943051F411961C91843099F574
:100EE0008181682F70E0611B71093FC0843021F05F
:100EF000923031F48230B9F18181882389F12DC09B
:100F000011961C9111978230F1F081811817D9F454
:100F100012962D913C9113978281938182179307AA
:100F200094F028173907BCF014968D919D910D907F
:100F3000BC91A02D2481358146815781281739071E
:100F40004A075B0718F4112341F00AC08217930780
:100F5000A407B50740F4112319F061E070E005C063
:100F60006FEF7FEF02C060E070E0CB011F9108954A
:100F7000CF93DF93BC018230910510F462E070E002
:100F8000A0911A03B0911B03ED01E0E0F0E040E016
:100F900050E021C0888199818617970769F48A817A
:100FA0009B81309719F09383828304C090931B0335
:100FB00080931A03FE0134C06817790738F441158D
:100FC000510519F08417950708F4AC01FE018A81D8
:100FD0009B819C01E9012097E9F641155105A9F192
:100FE000CA01861B970B049708F4BA01E0E0F0E011
:100FF0002AC08D919C91119784179507F9F4641775
:10100000750781F412968D919C911397309719F082
:101010009383828304C090931B0380931A03FD0182
:1010200032964CC0CA01861B970BFD01E80FF91FD1
:101030006193719302978D939C9340C0FD018281CF
:1010400093819C01D9011097A1F68091180390918A
:101050001903892B41F480914002909141029093B1
:1010600019038093180340914202509143024115A5
:10107000510541F44DB75EB780913E0290913F0219
:10108000481B590B2091180330911903CA01821B88
:10109000930B8617970780F0AB014E5F5F4F841765
:1010A000950750F0420F531F5093190340931803B4
:1010B000F9016193719302C0E0E0F0E0CF01DF91AC
:1010C000CF910895CF93DF93009709F450C0EC01BE
:1010D00022971B821A82A0911A03B0911B031097CA
:1010E00009F140E050E0AC17BD0708F1BB83AA83CB
:1010F000FE0121913191E20FF31FAE17BF0779F482
:101100008D919C911197280F391F2E5F3F4F398386
:10111000288312968D919C9113979B838A83411506
:10112000510571F4D0931B03C0931A0320C012968B
:101130008D919C911397AD01009711F0DC01D3CFF5
:10114000FA01D383C28321913191E20FF31FCE17AD
:10115000DF0769F488819981280F391F2E5F3F4F7F
:10116000FA01318320838A819B8193838283DF917B
:10117000CF910895AEE0B0E0E0ECF8E00C941416E6
:101180000D891E898F89988D97FF02C080E090E8B5
:1011900001979E838D831A83098386E08C839E0149
:1011A000255E3F4FCE010196698D7A8DA9010E947F
:1011B000EB084D815E8157FD0AC02F8138854217AB
:1011C00053070CF49A01020F131FF80110822E9698
:1011D000E4E00C943016ABE0B0E0E1EFF8E00C9402
:1011E00006163C012B015A01FC01178216828381ED
:1011F00081FD03C06FEF7FEFC6C19AE0892E1E010B
:101200000894211C311CF3012381F20123FD8591F7
:1012100023FF81912F01882309F4B2C1853239F46B
:1012200023FD859123FF81912F01853229F490E0E0
:10123000B3010E94DE0AE7CF982FFF24EE24992401
:10124000FFE1FF15D0F09B3269F09C3228F4903218
:1012500059F0933291F40EC09D3249F0903369F405
:1012600041E024C052E0F52A84E0F82A28C098E042
:10127000F92A25C0E0E1FE2A22C0F7FC29C0892F07
:1012800080538A3070F4F6FE05C0989C902C11248F
:10129000980E15C0E89CE02C1124E80EF0E2FF2A1D
:1012A0000EC09E3229F4F6FC6BC140E4F42A07C05C
:1012B0009C3619F450E8F52A02C0983649F4F20138
:1012C00023FD959123FF91912F01992309F0B8CF28
:1012D000892F8554833018F08052833038F444E0ED
:1012E00050E0A40EB51E5FE359830FC0933631F072
:1012F000933779F0933509F056C020C0F50180810D
:10130000898342E050E0A40EB51E610101E010E0C7
:1013100012C0F501C080D180F6FC03C06FEF7FEFF3
:1013200002C0692D70E042E050E0A40EB51EC60177
:101330000E94D30A8C015FE7F52214C0F501C0803A
:10134000D180F6FC03C06FEF7FEF02C0692D70E023
:1013500042E050E0A40EB51EC6010E94C80A8C01EE
:1013600050E8F52AF3FE07C01AC080E290E0B3010E
:101370000E94DE0AEA948E2D90E008171907A8F360
:101380000EC0F601F7FC8591F7FE81916F0190E0A8
:10139000B3010E94DE0AE110EA94015010400115E9
:1013A000110579F7EAC0943611F0993669F5F7FE20
:1013B00008C0F501208131814281538184E090E0B1
:1013C0000AC0F501808191819C01442737FD409539
:1013D000542F82E090E0A80EB91E9FE6F92257FF35
:1013E00009C050954095309521953F4F4F4F5F4F25
:1013F000E0E8FE2ACA01B901A1012AE030E00E941A
:101400000A0BD82ED21840C0953729F41F2D1F7E05
:101410002AE030E01DC01F2D197F9F3661F0903704
:1014200020F4983509F0ACC00FC0903739F09837E8
:1014300009F0A6C004C028E030E00AC0106114FD25
:10144000146020E130E004C014FD166020E132E0B9
:1014500017FF08C0F501608171818281938144E0AA
:1014600050E008C0F50180819181BC0180E090E0EE
:1014700042E050E0A40EB51EA1010E940A0BD82E36
:10148000D2188FE7F82EF122F6FE0BC05EEFF522A0
:10149000D91438F4F4FE07C0F2FC05C08FEEF82230
:1014A00002C01D2D01C0192DF4FE0DC0FE01ED0D71
:1014B000F11D8081803319F499EEF92208C01F5F75
:1014C000F2FE05C003C08F2D867809F01F5F0F2D37
:1014D000F3FC14C0F0FE0FC01E1510F09D2C0BC0C5
:1014E0009D2C9E0C911A1E2D06C080E290E0B30147
:1014F0000E94DE0A1F5F1E15C0F304C01E1510F403
:10150000E11A01C0EE2404FF0FC080E390E0B301B4
:101510000E94DE0A02FF1DC001FD03C088E790E0C3
:101520000EC088E590E00BC0802F867891F001FF17
:1015300002C08BE201C080E2F7FC8DE290E0B301D3
:101540000E94DE0A06C080E390E0B3010E94DE0A3A
:101550009A94D914C0F3DA94F101ED0DF11D808154
:1015600090E0B3010E94DE0ADD20A9F706C080E208
:1015700090E0B3010E94DE0AEA94EE20C1F743CE68
:10158000F30166817781CB012B96E2E10C94221660
:10159000FC010590615070400110D8F7809590953E
:1015A0008E0F9F1F0895FC01615070400190011043
:1015B000D8F7809590958E0F9F1F08950F931F93D6
:1015C000CF93DF938C01EB018B8181FF1BC082FFE6
:1015D0000DC02E813F818C819D812817390764F4CD
:1015E000E881F9810193F983E88306C0E885F985EC
:1015F000802F0995892B31F48E819F8101969F83DD
:101600008E8302C00FEF1FEFC801DF91CF911F91B2
:101610000F910895FA01AA27283051F1203181F164
:10162000E8946F936E7F6E5F7F4F8F4F9F4FAF4FEA
:10163000B1E03ED0B4E03CD0670F781F891F9A1FFD
:10164000A11D680F791F8A1F911DA11D6A0F711DB1
:10165000811D911DA11D20D009F468943F912AE0BD
:10166000269F11243019305D3193DEF6CF010895A5
:10167000462F4770405D4193B3E00FD0C9F7F6CFD6
:10168000462F4F70405D4A3318F0495D31FD40529E
:10169000419302D0A9F7EACFB4E0A6959795879534
:1016A00077956795BA95C9F7009761057105089513
:1016B0009B01AC010A2E06945795479537952795BF
:1016C000BA95C9F7620F731F841F951FA01D089557
:1016D00081E00895FC0183899489880F991F05880A
:1016E000F689E02DE80FF91F80819181089580E04F
:1016F00008950F931F93DF93CF93CDB7DEB72E9747
:101700000FB6F894DEBF0FBECDBF2F8338876B872F
:101710007C878D879E872B853C854D855E858F8157
:1017200098850A9789F40091760210917702CA0190
:10173000B90120E030E04AE754E40E9462020E94CE
:10174000F604F801718360832E960FB6F894DEBF1D
:101750000FBECDBFCF91DF911F910F9108950F93D1
:101760001F9305E013E0C8016CE770E040E050E033
:101770000E94F113C8016DE970E040E050E00E9462
:10178000F1136AE070E080E090E00E94BA111F91CE
:101790000F910895CF93DF93EC016A831416150619
:1017A0001CF06B836C830BC0433051051CF0E1E0EF
:1017B000F0E002C0FA013197EC0FFD1F63838D81C9
:1017C000882321F0CE010E94AF0B1D820E94AC1134
:1017D000688779878A879B87DF91CF9108950F93D8
:1017E0001F9305E013E0C8016EEF70E040E050E0A9
:1017F0000E94F113C80161E070E040E050E00E94F7
:10180000F1136AE070E080E090E00E94BA111F914D
:101810000F9108950F931F93DF93CF93CDB7DEB74A
:101820002A970FB6F894DEBF0FBECDBF2DB73EB7D7
:101830002A5030400FB6F8943EBF0FBE2DBFEDB713
:10184000FEB731968E010F5F1F4FADB7BEB7129630
:101850001C930E9311972AE030E03383228320E01B
:1018600031E035832483DC0116962D913D914D9115
:101870005C91199726833783408751870E94BA0865
:101880002DB73EB7265F3F4F0FB6F8943EBF0FBE51
:101890002DBFC8012A960FB6F894DEBF0FBECDBF8C
:1018A000CF91DF911F910F9108950F931F938C019A
:1018B000FC01868961E00E947412F80160857185DF
:1018C000882777FD8095982F0E94BA11F8018689A4
:1018D00060E00E947412F80162857385882777FDA5
:1018E0008095982F0E94BA111F910F9108950F9320
:1018F0001F938C010E94AC11F801628B738B848B57
:10190000958B808D61E00E947412F801648175816D
:10191000882777FD8095982F0E94BA11F801808D55
:1019200060E00E947412F80186859785019697877A
:1019300086871F910F910895CF93DF93EC018989DA
:10194000882339F10E94AC112A893B894C895D8931
:10195000621B730B840B950B28813981442737FD5B
:101960004095542F261737074807590790F4CE01A2
:101970000E94550CCE010E94770C2C853D858FEF7F
:101980002F3F380731F08E859F85821793070CF023
:10199000198ADF91CF9108950F931F938C01842FA3
:1019A00028EE33E0F80131832083778B668B408FFC
:1019B000518F48EC50E05583448328E833E1378366
:1019C00026832CE231E03187208753874287108AB3
:1019D00091E0918B128A138A148A158A17861686CB
:1019E00061E00E944E12F801868961E00E944E1269
:1019F0001F910F9108954F925F926F927F928F92F5
:101A00009F92AF92BF92CF92DF92EF92FF920F938D
:101A10001F93DF93CF93CDB7DEB72E970FB6F89411
:101A2000DEBF0FBECDBF2C013A014B01DC011E967B
:101A3000ED91FC911F972289338937FD0CC0808975
:101A40009189281739073CF4220F331FE20FF31F47
:101A5000A080B1800AC081E190E00E94B8075C01DB
:101A600083E592E0F50191838083D5011696ED9090
:101A7000FD900D911C911997C401B3011A962D91F7
:101A80003D914D915C911D970E9462029B01AC01BA
:101A9000C801B7010E9435023B014C01C801B701E2
:101AA000A40193010E940804882371F1F501668264
:101AB00077828086918687859089892B29F1148188
:101AC00005810E94AC11D5011F96ED91FC915097B4
:101AD0001A861986CA2CBA82A9826B867C868D8664
:101AE0009E86E62E6B837C838D839E83212F1F83AE
:101AF0000887DA80F72E8C01388549855A856B85F1
:101B00007C858D859E850995C20161E042E050E0AB
:101B10000E94CA0B2E960FB6F894DEBF0FBECDBF43
:101B2000CF91DF911F910F91FF90EF90DF90CF90B9
:101B3000BF90AF909F908F907F906F905F904F90ED
:101B40000895CF92DF92EF92FF920F931F93DF934E
:101B5000CF93CDB7DEB72A970FB6F894DEBF0FBE8E
:101B6000CDBF0091740210917502D8018C910E9432
:101B70004211F80184839583AC01DE011196E5E4FE
:101B8000F2E08AE001900D928150E1F7D8011296BF
:101B90006D917C911397FE01319620E030E007C0F3
:101BA000819191914817590760F02F5F3F4F261799
:101BB0003707B4F3F801108A118A128A138A2FEFBB
:101BC0003FEFD80119963C932E9318971A968D9152
:101BD0009C911B972817390709F456C062E370E0FF
:101BE00080E090E00E94BA11F80180810E944211C9
:101BF000D80114968C93149715969C93AC01DE0132
:101C00001196E5E4F2E08AE001900D928150E1F74F
:101C1000F80162817381FE01319620E030E007C057
:101C2000819191914817590770F02F5F3F4F261708
:101C30003707B4F3D80150961D921D921D921C9245
:101C400053972FEF3FEFF8013187208782859385E7
:101C50002817390709F4B9C03387228737FD0EC02A
:101C60000E94AC11D80150966D937D938D939C93F7
:101C7000539718968D919C91199743C0F801108A3B
:101C8000118A128A138AA1C037FD9FC0D80112960B
:101C90008D919C911397281739070CF096C0509698
:101CA0008D919D910D90BC91A02D0097A105B1053E
:101CB00009F48BC00E94AC11F801C088D188E28879
:101CC000F3886C197D098E099F0924853585442781
:101CD00037FD4095542F261737074807590708F056
:101CE00074C086859785AA2797FDA095BA2F8C0D7D
:101CF0009D1DAE1DBF1D808B918BA28BB38B8085EC
:101D00009185FFEF8F3F9F0709F45FC082309105F7
:101D100089F0833091053CF4009709F450C0019795
:101D200009F053C038C083309105E1F0049709F001
:101D30004CC03AC0A0917202B09173021E96ED9110
:101D4000FC911F97228933898089918901972817EF
:101D500039072CF42F5F3F4F338B228B15C0138A2A
:101D6000128A12C0A0917202B09173021E96ED9178
:101D7000FC911F97828993891816190614F080899F
:101D800091890197938B828BCD0161E040E050E017
:101D90000E94CA0B1AC0809172029091730240E0B7
:101DA00050E060E87FE308C0809172029091730276
:101DB00040E050E060E87FEB0E94FB0C06C08091A1
:101DC0007602909177020E94770C80917602909132
:101DD00077020E949C0CE0907202F0907302D7018F
:101DE00012968C911297882309F494C012961C9233
:101DF000129713968C911397882339F014968C912F
:101E0000882319F0C7010E94EF0BD7011E96ED91B0
:101E1000FC911F972289338937FD0CC080899189F5
:101E2000281739073CF4220F331FE20FF31F0081FC
:101E300011810AC081E190E00E94B8078C0183E51E
:101E400092E0F80191838083D70113968C918823C7
:101E500001F185E093E06EEF70E040E050E00E9419
:101E6000F11385E093E060E870E040E050E00E940C
:101E7000F1136AE070E080E090E00E94BA11F8018E
:101E80006281738185E093E00E940A13D701139663
:101E90001C92F7018481882309F46FC085E093E0E8
:101EA0006EEF70E040E050E00E94F11385E093E0B7
:101EB00060EC70E040E050E00E94F1136AE070E0F6
:101EC00080E090E00E94BA11D801ED91FC9102806F
:101ED000F381E02DC8010995882361F0F80146815E
:101EE00057816085718585E093E022E030E00E94B3
:101EF00090140DC0D801ED91FC910190F081E02D7E
:101F0000C8010995BC0185E093E00E940A13F7011E
:101F1000148233C00E94AC11D70118962D913D91C7
:101F20004D915C911B97621B730B840B950B16965E
:101F30002D913C911797442737FD4095542F261734
:101F4000370748075907C8F485E093E06CE770E06D
:101F500040E050E00E94F11385E093E060E870E01B
:101F600040E050E00E94F1136AE070E080E090E011
:101F70000E94BA1181E0F70185836EE170E080E094
:101F800090E00E94BA112A960FB6F894DEBF0FBEF9
:101F9000CDBFCF91DF911F910F91FF90EF90DF9018
:101FA000CF9008950F931F93DF93CF9300D000D06D
:101FB000CDB7DEB785E093E040E855E260E070E041
:101FC0000E94C41480E190E00E94B8078C01DC01FB
:101FD0001D961C921E921C971F961C921E921E9775
:101FE00015961C92159780E395E717969C938E9310
:101FF0001697C8010E94EF0BC8010E94AF0B85E045
:1020000093E06CE770E040E050E00E94F11385E05F
:1020100093E065E070E04AE050E00E94F1136AE06E
:1020200070E080E090E00E94BA11C80161E040E0F9
:1020300050E00E94CA0B109373020093720284E175
:1020400090E00E94B807FC011182108285E090E0C8
:10205000938382838FEF9FEF918780879387828717
:102060001782168280E293E09587848786E990E064
:1020700097878687108A118A128A138AF0937502CD
:10208000E09374028AE190E00E94B807182F092FAC
:102090006CE070E04DE050E00E94CC0C10937602B2
:1020A00000937702009172021091730284E190E034
:1020B0000E94B807FC01118A108A138A128AD8017B
:1020C0001F969C938E931E971C968D919C911D97A5
:1020D000892B21F41D96FC93EE931C97C80161E0B7
:1020E00040E050E00E94CA0BE0917202F09173024E
:1020F0000685178583E091E09A83898386E091E0E5
:102100009C838B8381E190E00E94B8079C0183E56A
:1021100092E0F901918380838AE091E09383828346
:102120008AE090E09583848389E79BE0908B8787A2
:1021300080E090E0A0EAB0E486839783A087B1872F
:1021400080E090E0A0E8BFE382879387A487B5870B
:1021500081E08687D80150968D919C915197883067
:10216000910564F4FC01EE0FFF1FE00FF11F3183B6
:102170002083019651969C938E93509781E190E035
:102180000E94B8079C0183E592E0F9019183808366
:102190008AE191E0938382838BE090E0958384834E
:1021A00089E79BE0908B878780E090E0AAE7B3E423
:1021B00086839783A087B18780E090E0A8E4B2E4AB
:1021C00082879387A487B58781E08687D801509658
:1021D0008D919C9151978830910564F4FC01EE0F2C
:1021E000FF1FE00FF11F31832083019651969C93CE
:1021F0008E93509787E190E00E94B807DC018BE551
:1022000092E011969C938E938BE291E013969C93AF
:102210008E9312978CE090E015969C938E93149772
:1022200089E79BE050969C938E931F97CE01019671
:1022300056969C938E93559782E090E052969C938D
:102240008E93519754961C921E925397F801808951
:102250009189883091056CF4FC01EE0FFF1FE00FAF
:10226000F11FB183A0830196D80151969C938E9360
:1022700050970F900F900F900F90CF91DF911F917B
:102280000F910895982F8E3008F09E50977080918E
:1022900044028295880F880F807C892B80937C0074
:1022A00080917A00806480937A0080917A0086FD24
:1022B000FCCF2091780040917900942F80E030E0AD
:1022C000282B392BC90108951F920F920FB60F9238
:1022D00011242F933F938F939F93AF93BF9380913C
:1022E0007C0290917D02A0917E02B0917F0230919C
:1022F00080020196A11DB11D232F2D5F2D3720F0E7
:102300002D570196A11DB11D2093800280937C0260
:1023100090937D02A0937E02B0937F028091780219
:1023200090917902A0917A02B0917B020196A11D51
:10233000B11D8093780290937902A0937A02B093B2
:102340007B02BF91AF919F918F913F912F910F9001
:102350000FBE0F901F9018958FB7F89420917C02B4
:1023600030917D0240917E0250917F028FBFB90172
:10237000CA0108959B01AC017FB7F894809178025F
:1023800090917902A0917A02B0917B0266B5A89BE8
:1023900005C06F3F19F00196A11DB11D7FBFBA2F77
:1023A000A92F982F8827860F911DA11DB11D62E0CE
:1023B000880F991FAA1FBB1F6A95D1F7BC012DC0BA
:1023C000FFB7F8948091780290917902A0917A02F7
:1023D000B0917B02E6B5A89B05C0EF3F19F00196CE
:1023E000A11DB11DFFBFBA2FA92F982F88278E0FCF
:1023F000911DA11DB11DE2E0880F991FAA1FBB1FEF
:10240000EA95D1F7861B970B885E9340C8F221505E
:1024100030404040504068517C4F21153105410506
:10242000510571F60895789484B5826084BD84B5B1
:10243000816084BD85B5826085BD85B5816085BDBF
:10244000EEE6F0E0808181608083E1E8F0E01082D8
:10245000808182608083808181608083E0E8F0E019
:10246000808181608083E1EBF0E080818460808303
:10247000E0EBF0E0808181608083EAE7F0E080813A
:10248000846080838081826080838081816080839A
:102490008081806880831092C1000895482F50E0A9
:1024A000CA0186569F4FFC0124914A575F4FFA019B
:1024B00084918823C1F0E82FF0E0EE0FFF1FE85968
:1024C000FF4FA591B491662341F49FB7F8948C9186
:1024D000209582238C939FBF08959FB7F8948C9189
:1024E000822B8C939FBF0895482F50E0CA018255DC
:1024F0009F4FFC012491CA0186569F4FFC013491E5
:102500004A575F4FFA019491992309F444C022235A
:1025100051F1233071F0243028F42130A1F0223021
:1025200011F514C02630B1F02730C1F02430D9F4B1
:1025300004C0809180008F7703C0809180008F7DE0
:102540008093800010C084B58F7702C084B58F7DE2
:1025500084BD09C08091B0008F7703C08091B00026
:102560008F7D8093B000E92FF0E0EE0FFF1FEE5853
:10257000FF4FA591B491662341F49FB7F8948C91D5
:10258000309583238C939FBF08959FB7F8948C91C7
:10259000832B8C939FBF08950E9413120E94D20F29
:1025A0000E94A10DFDCF0F931F93CF93DF938C015A
:1025B000EB0109C02196D801ED91FC910190F081C9
:1025C000E02DC801099568816623A1F7DF91CF91BD
:1025D0001F910F910895EF92FF920F931F93CF9346
:1025E000DF938C017B01EA010CC0D7016D917D0165
:1025F000D801ED91FC910190F081E02DC801099581
:102600002197209791F7DF91CF911F910F91FF9024
:10261000EF900895DC01ED91FC910280F381E02DB3
:10262000099508952F923F924F925F926F927F92F9
:102630008F929F92AF92BF92CF92DF92EF92FF92D2
:102640000F931F93DF93CF93CDB7DEB7A0970FB64D
:10265000F894DEBF0FBECDBF1C016A017B0141159E
:1026600051056105710549F440E350E060E070E018
:1026700020E030E00E94BB1356C088249924540106
:10268000422E55246624772401E010E00C0F1D1F14
:10269000080D191DC701B601A30192010E94C915B9
:1026A000F80160830894811C911CA11CB11CC70116
:1026B000B601A30192010E94C915C901DA016C019A
:1026C0007D01C114D104E104F104F1F681E0E82EAA
:1026D000F12CEC0EFD1EE80CF91C3E010894611C67
:1026E000711CD501C4010197A109B1096C01C81879
:1026F000D90816C0F601EE0DFF1D40814A3010F4D6
:10270000405D01C0495C552747FD5095652F752FE9
:10271000C10120E030E00E94BB130894E108F108F9
:102720006E147F0439F7A0960FB6F894DEBF0FBE83
:10273000CDBFCF91DF911F910F91FF90EF90DF9070
:10274000CF90BF90AF909F908F907F906F905F9051
:102750004F903F902F900895DC012115310541F4F1
:10276000ED91FC910190F081E02D642F0995089581
:102770000E9412130895EF92FF920F931F93CF932D
:10278000DF93EC017A018B012115310541F4E881D9
:10279000F9810190F081E02D642F09951BC02A304A
:1027A0003105B1F477FF10C04DE250E060E070E019
:1027B00020E030E00E94BB1310950095F094E09467
:1027C000E11CF11C011D111DCE01B801A7012AE079
:1027D0000E941213DF91CF911F910F91FF90EF9004
:1027E0000895EF92FF920F931F937B019A010027A8
:1027F000F7FC0095102FB801A7010E94BB131F9191
:102800000F91FF90EF9008959F92AF92BF92CF9259
:10281000DF92EF92FF920F931F93CF93DF93EC0120
:102820007A018B01922ECB01BA0120E030E040E02A
:1028300050E00E94680488236CF4CE014DE250E021
:1028400060E070E020E030E00E94BB1317FB1095C1
:1028500017F9109520E030E040E05FE3AA240BC0B8
:10286000CA01B90120E030E040E251E40E945C037B
:102870009B01AC01A394A91498F3C801B7010E946D
:1028800035025B016C010E948C007B018C01CE0142
:10289000B801A7012AE030E00E94AC13992029F08A
:1028A000CE0164E371E00E940A13C801B7010E94DF
:1028B0004A059B01AC01C601B5010E94040222C079
:1028C00020E030E040E251E40E9462027B018C0192
:1028D0000E94F6045B016C01CC24B7FCC094DC2C94
:1028E000CE01B601A5012AE030E00E94BB13C6016B
:1028F000B5010E9498049B01AC01C801B7010E9478
:1029000004029A949920E1F6DF91CF911F910F91E3
:10291000FF90EF90DF90CF90BF90AF909F90089581
:102920000E94041408951F920F920FB60F92112463
:102930002F933F934F938F939F93EF93FF934091E8
:10294000C600E0910103F091020331969F012F77B9
:102950003070319780910303909104032817390751
:1029600039F0EF57FD4F408330930203209301036A
:10297000FF91EF919F918F914F913F912F910F90E8
:102980000FBE0F901F901895CF93DF93EC019A0123
:10299000AB01E885F985203081EE380780E04807F3
:1029A00080E0580709F449C081E090E00A8802C03D
:1029B000880F991F0A94E2F7808360E079E08DE345
:1029C00090E00E94EB152150304040405040CA0139
:1029D000B90122E030E040E050E00E94EB15EC81CC
:1029E000FD813083EE81FF812083EA85FB85208194
:1029F00041E050E0CA010E8402C0880F991F0A947A
:102A0000E2F7282B2083EA85FB852081CA010F8409
:102A100002C0880F991F0A94E2F7282B2083EA85C9
:102A2000FB858081088802C0440F551F0A94E2F795
:102A3000842B8083DF91CF910895108220E130E0D4
:102A4000CECFDC011296ED91FC911397E058FF4F29
:102A50002191319180819181281B390B2F77307022
:102A6000C9010895DC011296ED91FC911397EE5780
:102A7000FF4F2081318192918291E058F04082177E
:102A8000930719F42FEF3FEF05C0E20FF31F80818A
:102A9000282F30E0C9010895DC011296ED91FC91D8
:102AA0001397DF01AE57BF4F2D913C911197E0581E
:102AB000FF4F80819181E058F0408217930719F40D
:102AC0002FEF3FEF0BC0E20FF31F80812F5F3F4FCF
:102AD0002F7730702D933C93282F30E0C901089553
:102AE000DC011296ED91FC911397EE57FF4F808118
:102AF0009181929382930895FC01A085B1852189EB
:102B00008C9190E0022E02C0959587950A94E2F789
:102B100080FFF6CF0484F585E02D6083089583E679
:102B200092E0909306038093050381E892E09093EE
:102B300008038093070385EC90E090930A03809349
:102B4000090384EC90E090930C0380930B0380ECDA
:102B500090E090930E0380930D0381EC90E09093AE
:102B6000100380930F0386EC90E090931203809300
:102B7000110384E08093130383E08093140387E0C0
:102B80008093150385E08093160381E080931703FB
:102B90000895A1E21A2EAA1BBB1BFD010DC0AA1F9E
:102BA000BB1FEE1FFF1FA217B307E407F50720F0B6
:102BB000A21BB30BE40BF50B661F771F881F991F31
:102BC0001A9469F760957095809590959B01AC017A
:102BD000BD01CF01089597FB092E05260ED057FDA4
:102BE00004D0D7DF0AD0001C38F4509540953095BA
:102BF00021953F4F4F4F5F4F0895F6F79095809581
:102C0000709561957F4F8F4F9F4F08952F923F9200
:102C10004F925F926F927F928F929F92AF92BF92EC
:102C2000CF92DF92EF92FF920F931F93CF93DF9398
:102C3000CDB7DEB7CA1BDB0B0FB6F894DEBF0FBEF5
:102C4000CDBF09942A88398848885F846E847D8442
:102C50008C849B84AA84B984C884DF80EE80FD8044
:102C60000C811B81AA81B981CE0FD11D0FB6F894BA
:102C7000DEBF0FBECDBFED010895EE0FFF1F059023
:0A2C8000F491E02D0994F894FFCFC1
:102C8A002566004F6E004F666600496E746572765F
:102C9A00616C20287365637329004578706F7375BA
:102CAA00726520286D7365637329004163746976C0
:102CBA00697479002E000000000000000000000185
:102CCA0002020303030304040404040404040505C0
:102CDA000505050505050505050505050505060698
:102CEA00060606060606060606060606060606067A
:102CFA000606060606060606060606060606070768
:102D0A000707070707070707070707070707070749
:102D1A000707070707070707070707070707070739
:102D2A000707070707070707070707070707070729
:102D3A000707070707070707070707070707080817
:102D4A0008080808080808080808080808080808F9
:102D5A0008080808080808080808080808080808E9
:102D6A0008080808080808080808080808080808D9
:102D7A0008080808080808080808080808080808C9
:102D8A0008080808080808080808080808080808B9
:102D9A0008080808080808080808080808080808A9
:102DAA000808080808080808080808080808080899
:102DBA000808080808080808080808080808200079
:102DCA001C030000013200C80090015802200300D1
:102DDA000000000A0C680B000000006A0B770B0069
:102DEA000000007C15D312EB1221154C1532157018
:022DFA001500C2
:00000001FF
