:100000000C9462000C948A000C948A000C948A0070
:100010000C948A000C948A000C948A000C948A0038
:100020000C948A000C948A000C948A000C948A0028
:100030000C948A000C948A000C948A000C948A0018
:100040000C94A2150C948A000C9465190C948A00E7
:100050000C948A000C948A000C948A000C948A00F8
:100060000C948A000C948A000000000024002700F1
:100070002A0000000000250028002B0000000000DE
:1000800023002600290004040404040404040202DA
:100090000202020203030303030301020408102007
:1000A0004080010204081020010204081020000012
:1000B0000007000201000003040600000000000029
:1000C0000000611A11241FBECFEFD8E0DEBFCDBF04
:1000D00012E0A0E0B1E0ECE7F6E302C005900D927B
:1000E000AC3DB107D9F713E0ACEDB2E001C01D9211
:1000F000A738B107E1F710E0C4ECD0E004C02297C4
:10010000FE010E94381BC23CD107C9F70E940A17A2
:100110000C943C1B0C940000EF92FF920F931F93E2
:100120007B018C0120E030E040E05FE40E94680445
:1001300088238CF0C801B70120E030E040E05FE4A4
:100140000E9404020E9426059B01AC012050304011
:100150004040504806C0C801B7010E9426059B01D7
:10016000AC01B901CA011F910F91FF90EF90089562
:10017000A0E0B0E0EEEBF0E00C94FF1ADC012B0104
:10018000FA019C91923008F439C1EB0188818230E8
:1001900008F433C1943069F4843009F02FC111960A
:1001A0009C9111978981981709F428C1A1E9B1E0C0
:1001B00025C1843009F421C18230A9F4923009F0BC
:1001C0001DC19A01AD0188E0EA010990AE01E90183
:1001D00009929E018150C1F7E201898111969C919B
:1001E0008923818308C1923009F407C112962D90AA
:1001F0003C901397EB018A819B811496AD90BD9042
:10020000CD90DC901797EC80FD800E811F819101CD
:10021000281B390BB90137FF04C066277727621BFB
:10022000730B603271050CF061C0121613066CF589
:1002300037014801062E04C09694879477946794FA
:100240000A94D2F721E030E040E050E004C0220FF1
:10025000331F441F551F6A95D2F72150304040404C
:1002600050402E213F2140235123211531054105C6
:10027000510521F021E030E040E050E079018A01B1
:10028000E628F728082919293CC0232BD1F1260E8E
:10029000371E35014601062E04C096948794779444
:1002A00067940A94D2F721E030E040E050E004C0C7
:1002B000220F331F441F551F6A95D2F7215030403B
:1002C000404050402A213B214C215D212115310520
:1002D0004105510521F021E030E040E050E05901B6
:1002E0006A01A628B728C828D9280BC0821593050B
:1002F0002CF01C01AA24BB24650103C0EE24FF24BA
:10030000870111969C91D20111968C91981709F44E
:1003100045C0992339F0A80197012A193B094C09D6
:100320005D0906C0A60195012E193F09400B510B2E
:1003300057FD08C01182338222822483358346838D
:1003400057831DC081E081833382228288279927C9
:10035000DC01821B930BA40BB50B84839583A683CE
:10036000B7830DC0220F331F441F551F24833583CD
:10037000468357838281938101979383828324816B
:10038000358146815781DA01C9010197A109B10977
:100390008F5F9F4FAF4FBF4328F30BC091833382D2
:1003A0002282EA0CFB1C0C1D1D1DE482F5820683D3
:1003B000178383E08083248135814681578157FFED
:1003C0001AC0C901AA2797FDA095BA2F8170907015
:1003D000A070B0705695479537952795822B932B33
:1003E000A42BB52B84839583A683B78382819381C5
:1003F000019693838283DF0101C0D201CD01CDB785
:10040000DEB7E2E10C941B1BA0E2B0E0EAE0F2E010
:100410000C940B1B69837A838B839C832D833E838F
:100420004F835887E9E0EE2EF12CEC0EFD1ECE0135
:100430000196B7010E9417078E010F5E1F4FCE0174
:100440000596B8010E9417078A8991E089278A8B4F
:10045000C701B801AE01475E5F4F0E94B8000E941D
:100460004206A096E6E00C94271BA0E2B0E0EBE386
:10047000F2E00C940B1B69837A838B839C832D831E
:100480003E834F835887F9E0EF2EF12CEC0EFD1ED2
:10049000CE010196B7010E9417078E010F5E1F4F14
:1004A000CE010596B8010E941707C701B801AE0139
:1004B000475E5F4F0E94B8000E944206A096E6E0A9
:1004C0000C94271BA0E2B0E0E8E6F2E00C94FF1ADF
:1004D00069837A838B839C832D833E834F835887E4
:1004E000CE010196BE01675F7F4F0E941707CE01C4
:1004F0000596BE016F5E7F4F0E9417079985923067
:1005000088F089898230C8F0943019F4823051F42F
:1005100004C0843029F4923081F481E991E0C6C0AE
:10052000923049F420E09A858A89981321E02A873D
:10053000CE010996BBC0823049F420E09A858A89B1
:10054000981321E02A8BCE014196B0C02D843E84C1
:100550004F8458886D887E888F88988CEE24FF247D
:100560008701AA24BB24650140E050E060E070E010
:10057000E0E0F0E0C10181709070892BE9F0E60CB9
:10058000F71C081D191D9A01AB012A0D3B1D4C1DBE
:100590005D1D80E090E0A0E0B0E0E614F7040805FF
:1005A000190520F481E090E0A0E0B0E0BA01A901D3
:1005B000480F591F6A1F7B1FAA0CBB1CCC1CDD1CDB
:1005C00097FE08C081E090E0A0E0B0E0A82AB92A38
:1005D000CA2ADB2A3196E032F10549F0660C771C15
:1005E000881C991C5694479437942794C3CFFA8556
:1005F000EA892B893C898B859C85280F391F2E5FC2
:100600003F4F17C0CA0181709070892B61F0169519
:100610000795F794E79480E090E0A0E0B0E8E82A3E
:10062000F92A0A2B1B2B76956795579547952F5FCF
:100630003F4F77FDE7CF0CC0440F551F661F771F54
:1006400017FD4160EE0CFF1C001F111F21503040B0
:10065000403090E0590790E0690790E4790760F333
:100660002B8F3C8FDB01CA018F779070A070B07028
:1006700080349105A105B10561F447FD0AC0E1147C
:10068000F1040105110529F0405C5F4F6F4F7F4F6A
:1006900040781A8EFE1711F081E08A8F4D8F5E8FA1
:1006A0006F8F78A383E0898FCE0149960E9442061E
:1006B000A096E2E10C941B1BA8E1B0E0E2E6F3E0B7
:1006C0000C94071B69837A838B839C832D833E83E1
:1006D0004F835887B9E0EB2EF12CEC0EFD1ECE01B6
:1006E0000196B7010E9417078E010F5E1F4FCE01C2
:1006F0000596B8010E9417072985223008F47EC0AC
:100700003989323010F4B8017CC08A859A898927EA
:100710008A87243011F0223031F4231709F06EC09B
:1007200061E971E06EC0343039F41D861E861F8683
:10073000188A1C861B8604C0323021F484E0898725
:10074000B7015FC02B853C858B899C89281B390BA1
:100750003C872B87ED84FE840F851889AD88BE8881
:10076000CF88D88CEA14FB040C051D0540F4EE0C70
:10077000FF1C001F111F215030403C872B8720E0B9
:1007800030E040E050E080E090E0A0E0B0E460E0E5
:1007900070E0EA14FB040C051D0540F0282B392BF2
:1007A0004A2B5B2BEA18FB080C091D09B695A79587
:1007B00097958795EE0CFF1C001F111F6F5F7F4FF1
:1007C0006F31710531F7DA01C9018F779070A07030
:1007D000B07080349105A105B10561F427FD0AC010
:1007E000E114F1040105110529F0205C3F4F4F4F42
:1007F0005F4F20782D873E874F87588BBE01675FFC
:100800007F4FCB010E9442066896EAE00C94231BBE
:10081000A8E1B0E0EEE0F4E00C940B1B69837A836E
:100820008B839C832D833E834F83588789E0E82EFA
:10083000F12CEC0EFD1ECE010196B7010E941707A8
:100840008E010F5E1F4FCE010596B8010E9417075B
:100850008985823040F08989823028F0C701B8014B
:100860000E948F0701C081E06896E6E00C94271B88
:10087000A8E1B0E0EEE3F4E00C940B1B69837A830B
:100880008B839C832D833E834F83588789E0E82E9A
:10089000F12CEC0EFD1ECE010196B7010E94170748
:1008A0008E010F5E1F4FCE010596B8010E941707FB
:1008B0008985823040F08989823028F0C701B801EB
:1008C0000E948F0701C08FEF6896E6E00C94271B0B
:1008D000A8E1B0E0EEE6F4E00C940B1B69837A83A8
:1008E0008B839C832D833E834F83588789E0E82E3A
:1008F000F12CEC0EFD1ECE010196B7010E941707E8
:100900008E010F5E1F4FCE010596B8010E9417079A
:100910008985823040F08989823028F0C701B8018A
:100920000E948F0701C08FEF6896E6E00C94271BAA
:10093000A8E1B0E0EEE9F4E00C940B1B69837A8344
:100940008B839C832D833E834F83588789E0E82ED9
:10095000F12CEC0EFD1ECE010196B7010E94170787
:100960008E010F5E1F4FCE010596B8010E9417073A
:100970008985823040F08989823028F0C701B8012A
:100980000E948F0701C081E06896E6E00C94271B67
:10099000A8E0B0E0EEECF4E00C94081B9B01AC0185
:1009A00083E08983DA01C9018827B7FD83959927F8
:1009B000AA27BB27B82E211531054105510519F489
:1009C00082E089833AC08823A9F0203080E038078C
:1009D00080E0480780E8580729F460E070E080E094
:1009E0009FEC30C0EE24FF248701E21AF30A040BC7
:1009F000150B02C079018A018EE1C82ED12CDC8250
:100A0000CB82ED82FE820F831887C801B7010E9456
:100A1000F30501971816190684F4082E04C0EE0C8D
:100A2000FF1C001F111F0A94D2F7ED82FE820F8374
:100A30001887C81AD90ADC82CB82BA82CE01019605
:100A40000E9442062896E9E00C94241BACE0B0E03A
:100A5000ECE2F5E00C940F1B69837A838B839C8313
:100A6000CE010196BE016B5F7F4F0E9417078D81FB
:100A7000823061F1823050F1843021F48E818823FC
:100A800051F12EC02F81388537FD20C06E812F3166
:100A900031051CF06623F9F023C08EE190E0821B43
:100AA000930B29853A854B855C8504C056954795FF
:100AB000379527958A95D2F76623B1F050954095E2
:100AC000309521953F4F4F4F5F4F0EC020E030E0F3
:100AD00040E050E009C02FEF3FEF4FEF5FE704C069
:100AE00020E030E040E050E8B901CA012C96E2E095
:100AF0000C942B1BA8E0B0E0E0E8F5E00C94071B99
:100B00007B018C01611571058105910519F482E065
:100B1000898360C083E089838EE1C82ED12CDC827A
:100B2000CB82ED82FE820F831887C801B7010E9435
:100B3000F305FC013197F7FF3BC0222733272E1B1B
:100B40003F0B57016801022E04C0D694C794B79496
:100B5000A7940A94D2F740E050E060E070E081E0B2
:100B600090E0A0E0B0E004C0880F991FAA1FBB1F4F
:100B70002A95D2F70197A109B1098E219F21A023BF
:100B8000B1230097A105B10521F041E050E060E0FC
:100B900070E04A295B296C297D294D835E836F8330
:100BA00078878EE190E08E1B9F0B9C838B8312C015
:100BB000309781F00E2E04C0EE0CFF1C001F111F99
:100BC0000A94D2F7ED82FE820F831887CE1ADF0ACD
:100BD000DC82CB821A82CE0101960E9442062896C0
:100BE000EAE00C94231BEF92FF920F931F937B017B
:100BF0008C0180E0E81680E0F80681E0080780E0DC
:100C0000180788F48FEFE816F1040105110531F09B
:100C100028F088E090E0A0E0B0E017C080E090E02D
:100C2000A0E0B0E012C080E0E81680E0F80680E0C6
:100C3000080781E0180728F088E190E0A0E0B0E024
:100C400004C080E190E0A0E0B0E020E230E040E0CD
:100C500050E0281B390B4A0B5B0B04C01695079517
:100C6000F794E7948A95D2F7F701E756FE4F808113
:100C7000281B310941095109C9011F910F91FF90AA
:100C8000EF900895DF92EF92FF920F931F93FC0174
:100C9000E480F58006811781D1808081823048F41C
:100CA00080E090E0A0E1B0E0E82AF92A0A2B1B2BB3
:100CB000A5C0843009F49FC0823021F4EE24FF24C3
:100CC000870105C0E114F1040105110519F4E0E004
:100CD000F0E096C0628173819FEF623879070CF073
:100CE0005BC022E83FEF261B370B2A3131052CF081
:100CF00020E030E040E050E02AC0B801A701022E19
:100D000004C076956795579547950A94D2F781E088
:100D100090E0A0E0B0E004C0880F991FAA1FBB1F9D
:100D20002A95D2F70197A109B1098E219F21A0230D
:100D3000B1230097A105B10521F081E090E0A0E08A
:100D4000B0E09A01AB01282B392B4A2B5B2BDA013F
:100D5000C9018F779070A070B07080349105A105A3
:100D6000B10539F427FF09C0205C3F4F4F4F5F4F5B
:100D700004C0215C3F4F4F4F5F4FE0E0F0E0203078
:100D8000A0E03A07A0E04A07A0E45A0710F0E1E02B
:100D9000F0E079018A0127C06038710564F5FB0134
:100DA000E158FF4FD801C7018F779070A070B070E5
:100DB00080349105A105B10539F4E7FE0DC080E44A
:100DC00090E0A0E0B0E004C08FE390E0A0E0B0E0ED
:100DD000E80EF91E0A1F1B1F17FF05C01695079581
:100DE000F794E794319687E016950795F794E79482
:100DF0008A95D1F705C0EE24FF248701EFEFF0E0DC
:100E00006E2F679566276795902F9F77D794DD247F
:100E1000D7948E2F8695492F462B582F5D29B701E1
:100E2000CA011F910F91FF90EF90DF900895FC0190
:100E3000DB01408151812281622F6F7770E0221F98
:100E40002227221F9381892F880F822B282F30E0A1
:100E5000991F9927991F11969C9311972115310578
:100E6000A9F5411551056105710511F482E037C0FE
:100E700082E89FEF13969C938E9312979A01AB0191
:100E800067E0220F331F441F551F6A95D1F783E097
:100E90008C930DC0220F331F441F551F12968D9146
:100EA0009C911397019713969C938E9312972030E1
:100EB00080E0380780E0480780E4580758F314962C
:100EC0002D933D934D935C93179708952F3F3105D4
:100ED00079F4411551056105710519F484E08C938D
:100EE000089564FF03C081E08C9312C01C9210C06F
:100EF0002F57304013963C932E93129783E08C9398
:100F000087E0440F551F661F771F8A95D1F77064DD
:100F100014964D935D936D937C93179708951F934B
:100F2000DC01FB019C91923008F447C08081823043
:100F300008F443C0943051F411961C91843099F513
:100F40008181682F70E0611B71093FC0843021F0FE
:100F5000923031F48230B9F18181882389F12DC03A
:100F600011961C9111978230F1F081811817D9F4F4
:100F700012962D913C91139782819381821793074A
:100F800094F028173907BCF014968D919D910D901F
:100F9000BC91A02D248135814681578128173907BE
:100FA0004A075B0718F4112341F00AC08217930720
:100FB000A407B50740F4112319F061E070E005C003
:100FC0006FEF7FEF02C060E070E0CB011F910895EA
:100FD000CF93DF93BC018230910510F462E070E0A2
:100FE000A0918503B0918603ED01E0E0F0E040E0E0
:100FF00050E021C0888199818617970769F48A811A
:101000009B81309719F09383828304C09093860369
:1010100080938503FE0134C06817790738F44115C1
:10102000510519F08417950708F4AC01FE018A8177
:101030009B819C01E9012097E9F641155105A9F131
:10104000CA01861B970B049708F4BA01E0E0F0E0B0
:101050002AC08D919C91119784179507F9F4641714
:10106000750781F412968D919C911397309719F022
:101070009383828304C09093860380938503FD014C
:1010800032964CC0CA01861B970BFD01E80FF91F71
:101090006193719302978D939C9340C0FD0182816F
:1010A00093819C01D9011097A1F6809183039091BF
:1010B0008403892B41F480919B0290919C02909330
:1010C00084038093830340919D0250919E024115B9
:1010D000510541F44DB75EB78091990290919A0203
:1010E000481B590B2091830330918403CA01821B52
:1010F000930B8617970780F0AB014E5F5F4F841705
:10110000950750F0420F531F50938403409383037D
:10111000F9016193719302C0E0E0F0E0CF01DF914B
:10112000CF910895CF93DF93009709F450C0EC015D
:1011300022971B821A82A0918503B0918603109793
:1011400009F140E050E0AC17BD0708F1BB83AA836A
:10115000FE0121913191E20FF31FAE17BF0779F421
:101160008D919C911197280F391F2E5F3F4F398326
:10117000288312968D919C9113979B838A834115A6
:10118000510571F4D0938603C093850320C0129655
:101190008D919C911397AD01009711F0DC01D3CF95
:1011A000FA01D383C28321913191E20FF31FCE174D
:1011B000DF0769F488819981280F391F2E5F3F4F1F
:1011C000FA01318320838A819B8193838283DF911B
:1011D000CF910895FB01DC0101900D920020E1F711
:1011E0000895FB01DC014150504048F001900D9200
:1011F0000020C9F701C01D9241505040E0F708950A
:10120000FB019F01E8944230C4F04532B4F44A3007
:1012100029F497FB1EF4909581959F4F642F7727B3
:101220000E94EB1A805D8A330CF0895D8193CB01BB
:101230000097A1F716F45DE251931082C9010C9456
:10124000380BAEE0B0E0E7E2F9E00C940D1B0D893D
:101250001E8986E08C831A8309838FEF9FE79E8324
:101260008D839E01275E3F4FCE0101966F89788D59
:10127000A9010E9445092F813885020F131FF8012B
:1012800010822E96E4E00C94291BABE0B0E0EBE476
:10129000F9E00C94FF1A3C012B015A01FC01178262
:1012A0001682838181FD03C06FEF7FEFC6C19AE094
:1012B000892E1E010894211C311CF3012381F201A7
:1012C00023FD859123FF81912F01882309F4B2C169
:1012D000853239F423FD859123FF81912F018532D9
:1012E00029F490E0B3010E94480BE7CF982FFF2428
:1012F000EE249924FFE1FF15D0F09B3269F09C3277
:1013000028F4903259F0933291F40EC09D3249F096
:10131000903369F441E024C052E0F52A84E0F82AD1
:1013200028C098E0F92A25C0E0E1FE2A22C0F7FC97
:1013300029C0892F80538A3070F4F6FE05C0989C2E
:10134000902C1124980E15C0E89CE02C1124E80E76
:10135000F0E2FF2A0EC09E3229F4F6FC6BC140E495
:10136000F42A07C09C3619F450E8F52A02C09836D2
:1013700049F4F20123FD959123FF91912F019923C7
:1013800009F0B8CF892F8554833018F0805283300C
:1013900038F444E050E0A40EB51E5FE359830FC05B
:1013A000933631F0933779F0933509F056C020C069
:1013B000F5018081898342E050E0A40EB51E6101F1
:1013C00001E010E012C0F501C080D180F6FC03C03E
:1013D0006FEF7FEF02C0692D70E042E050E0A40E95
:1013E000B51EC6010E942D0B8C015FE7F52214C0CB
:1013F000F501C080D180F6FC03C06FEF7FEF02C023
:10140000692D70E042E050E0A40EB51EC6010E94B6
:10141000220B8C0150E8F52AF3FE07C01AC080E2C7
:1014200090E0B3010E94480BEA948E2D90E00817DB
:101430001907A8F30EC0F601F7FC8591F7FE81911C
:101440006F0190E0B3010E94480BE110EA94015053
:1014500010400115110579F7EAC0943611F099365C
:1014600069F5F7FE08C0F501208131814281538181
:1014700084E090E00AC0F501808191819C014427BD
:1014800037FD4095542F82E090E0A80EB91E9FE6EC
:10149000F92257FF09C050954095309521953F4F4F
:1014A0004F4F5F4FE0E8FE2ACA01B901A1012AE0CF
:1014B00030E00E94740BD82ED21840C0953729F422
:1014C0001F2D1F7E2AE030E01DC01F2D197F9F3683
:1014D00061F0903720F4983509F0ACC00FC0903718
:1014E00039F0983709F0A6C004C028E030E00AC0FF
:1014F000106114FD146020E130E004C014FD16609A
:1015000020E132E017FF08C0F5016081718182811E
:10151000938144E050E008C0F50180819181BC01D5
:1015200080E090E042E050E0A40EB51EA1010E94D0
:10153000740BD82ED2188FE7F82EF122F6FE0BC0CE
:101540005EEFF522D91438F4F4FE07C0F2FC05C0B2
:101550008FEEF82202C01D2D01C0192DF4FE0DC022
:10156000FE01ED0DF11D8081803319F499EEF92211
:1015700008C01F5FF2FE05C003C08F2D867809F0FA
:101580001F5F0F2DF3FC14C0F0FE0FC01E1510F0EE
:101590009D2C0BC09D2C9E0C911A1E2D06C080E226
:1015A00090E0B3010E94480B1F5F1E15C0F304C0FA
:1015B0001E1510F4E11A01C0EE2404FF0FC080E3F1
:1015C00090E0B3010E94480B02FF1DC001FD03C063
:1015D00088E790E00EC088E590E00BC0802F867809
:1015E00091F001FF02C08BE201C080E2F7FC8DE2C6
:1015F00090E0B3010E94480B06C080E390E0B30185
:101600000E94480B9A94D914C0F3DA94F101ED0DBD
:10161000F11D808190E0B3010E94480BDD20A9F705
:1016200006C080E290E0B3010E94480BEA94EE20ED
:10163000C1F743CEF30166817781CB012B96E2E1BE
:101640000C941B1BFC010590615070400110D8F7F1
:10165000809590958E0F9F1F0895FC0161507040FA
:1016600001900110D8F7809590958E0F9F1F0895D7
:10167000DC01FC01672F71917723E1F7329704C0F9
:101680007C916D9370836291AE17BF07C8F3089584
:101690000F931F93CF93DF938C01EB018B8181FF1D
:1016A0001BC082FF0DC02E813F818C819D81281738
:1016B000390764F4E881F9810193F983E88306C06E
:1016C000E885F985802F0995892B31F48E819F81DA
:1016D00001969F838E8302C00FEF1FEFC801DF9139
:1016E000CF911F910F910895FA01AA27283051F147
:1016F000203181F1E8946F936E7F6E5F7F4F8F4F43
:101700009F4FAF4FB1E03ED0B4E03CD0670F781FA1
:10171000891F9A1FA11D680F791F8A1F911DA11D86
:101720006A0F711D811D911DA11D20D009F46894BF
:101730003F912AE0269F11243019305D3193DEF667
:10174000CF010895462F4770405D4193B3E00FD01D
:10175000C9F7F6CF462F4F70405D4A3318F0495D08
:1017600031FD4052419302D0A9F7EACFB4E0A695EB
:101770009795879577956795BA95C9F7009761050D
:10178000710508959B01AC010A2E06945795479563
:1017900037952795BA95C9F7620F731F841F951F58
:1017A000A01D0895E0918503F091860360E070E04C
:1017B00009C0808191816817790708F4BC01028013
:1017C000F381E02D3097A9F7409183035091840372
:1017D0004115510521F440919B0250919C022091AA
:1017E0009D0230919E022115310541F42DB73EB77F
:1017F0008091990290919A02281B390B4217530746
:1018000018F080E090E003C0C901841B950B861797
:10181000970708F0BC01CB010895FC0126813781B0
:1018200040855185B901CA010895EF92FF920F9347
:101830001F938C01DC01ED90FC90882777FD80954B
:10184000982F0E94C804F801228533854485558568
:101850000E946202D80116962D913D914D915C91A6
:1018600019970E943502AB01BC01D7011496ED9186
:10187000FC911597C80109951F910F91FF90EF906A
:1018800008950895FC0186890895FC01838D948D47
:101890009C0144E0220F331F4A95E1F7281B390BC6
:1018A000235D3F4F2E0F3F1FC901089580E008952B
:1018B000CF93DF93EC016F31710510F460587F4FC7
:1018C000603871051CF460E870E005C06E39710580
:1018D00014F06DE970E07E836D8380E793E06CE740
:1018E00070E040E050E00E942F186D817E8180E71B
:1018F00093E040E050E00E942F186AE070E080E042
:1019000090E00E94F815DF91CF910895EF92FF9239
:101910000F931F937C0100E713E0C8016CE770E0B0
:1019200040E050E00E942F18F70165817681C801E0
:1019300040E050E00E942F186AE070E080E090E004
:101940000E94F8151F910F91FF90EF9008950F934B
:101950001F9300E713E0C8016EEF70E040E050E035
:101960000E942F18C80161E070E040E050E00E9442
:101970002F186AE070E080E090E00E94F8151F9157
:101980000F910895EF92FF920F931F93CF93DF93E0
:10199000EC016A83141615061CF06B836C830BC074
:1019A000433051051CF0E1E0F0E002C0FA0131974C
:1019B000EC0FFD1F63838F818823E1F0ED80FE80B3
:1019C00000E810E00CC0CE01B8010E94580C61E0A4
:1019D00070E080E090E00E94F8150F5F1F4F8D814E
:1019E0009E81801791077CF3FE82ED82CE010E94DA
:1019F000860C1F820E94EA156A877B878C879D87E9
:101A0000DF91CF911F910F91FF90EF9008956F920A
:101A10007F928F929F92AF92BF92CF92DF92EF927E
:101A2000FF920F931F93DF93CF93CDB7DEB7A097AD
:101A30000FB6F894DEBF0FBECDBF7C01B42EA52E2D
:101A4000962E872EFC016681778180859185242FD3
:101A5000352F492D582D0E940804882309F45FC0B2
:101A6000F701C684D784008911896B2D7A2D892DC1
:101A7000982D9601A8010E94980487FD13C0F701D4
:101A8000C288D388048915896B2D7A2D892D982DCC
:101A90009601A8010E943804181624F0CB2CDA2CE9
:101AA000092D182DC601D801F70186839783A087D9
:101AB000B1878789908D892B91F1048115810E94CE
:101AC000EA15F7016788708C18870F836B837C8316
:101AD0008D839E838B2D9A2DA92DB82D8B879C8766
:101AE000AD87BE87FA82E982DE015196FE0131960A
:101AF00080E101900D928150E1F7A988BA88CB88E6
:101B0000DC88ED88FE880F89188D298D3A8D4B8DE4
:101B10005C8D6D8D7E8D8F8D98A1F3010995A096BA
:101B20000FB6F894DEBF0FBECDBFCF91DF911F91EE
:101B30000F91FF90EF90DF90CF90BF90AF909F906C
:101B40008F907F906F9008958F929F92AF92BF92E7
:101B5000CF92DF92EF92FF920F931F93DF93CF9379
:101B6000CDB7DEB7A0970FB6F894DEBF0FBECDBFDE
:101B70007C0177FD40C0FC01818D928D681779074B
:101B8000D4F5748F638F8789908D892BE1F104815F
:101B900015810E94EA15F701238D348D8788908C7A
:101BA00018870F836B837C838D839E83388B2F876D
:101BB000DE015196FE01319680E101900D92815037
:101BC000E1F7A988BA88CB88DC88ED88FE880F8980
:101BD000188D298D3A8D4B8D5C8D6D8D7E8D8F8D01
:101BE00098A1F40109950FC0F701818D928D2817F6
:101BF000390734F408C0F701238D348D37FFF4CF53
:101C0000F701148E138EA0960FB6F894DEBF0FBEA8
:101C1000CDBFCF91DF911F910F91FF90EF90DF909B
:101C2000CF90BF90AF909F908F900895FC01638DEF
:101C3000748D0E94A40D0895DC019B015B968D912B
:101C40009C915C97280F391F59966D917C915A97FA
:101C50002617370764F0ED91FC911197261B370B7F
:101C60000680F781E02DCD01B9010995089537FF70
:101C700006C061507040621B730BCD0102C0CD01E4
:101C8000B9010E94A40D0895EF92FF920F931F9344
:101C9000DF93CF93CDB7DEB76E970FB6F894DEBF64
:101CA0000FBECDBFFC0166817781808591850E9442
:101CB00026059B01AC017E010894E11CF11CC701C3
:101CC000B9014AE050E00E9429198E01095F1F4FB7
:101CD000C701B80148E150E00E94F31889819A8158
:101CE0000E949208C8016E960FB6F894DEBF0FBE30
:101CF000CDBFCF91DF911F910F91FF90EF9008958D
:101D00006F927F928F929F92AF92BF92CF92DF920B
:101D1000EF92FF920F931F93DF93CF93CDB7DEB770
:101D2000C456D0400FB6F894DEBF0FBECDBF209191
:101D30008303309184032115310519F4AA24BB24AF
:101D40001AC080919B0290919C025901A81AB90A6D
:101D5000E0918503F09186034EEF5FEF0AC080812A
:101D60009181BA01681B790BA60EB71E0280F38120
:101D7000E02D3097A1F7EDB6FEB660909902709015
:101D80009A0280909B0290909C022115310519F4D3
:101D9000CC24DD2416C06901C818D908E091850358
:101DA000F09186032EEF3FEF0AC080819181D90127
:101DB000A81BB90BCA0EDB1E0280F381E02D309701
:101DC000A1F70E94D20B2DB73EB72A5030400FB674
:101DD000F8943EBF0FBE2DBFEDB7FEB731968E0112
:101DE0000F5F1F4FADB7BEB712961C930E9311979E
:101DF00020E031E033832283B582A482E618F7081D
:101E0000E818F908EC18FD08F782E68291878087C8
:101E10000E9421092DB73EB7265F3F4F0FB6F894B9
:101E20003EBF0FBE2DBF80E793E0B8010E94591856
:101E3000CC59DF4F0FB6F894DEBF0FBECDBFCF91A8
:101E4000DF911F910F91FF90EF90DF90CF90BF90A7
:101E5000AF909F908F907F906F900895AF92BF92B8
:101E6000CF92DF92EF92FF920F931F93DF93CF9366
:101E7000CDB7DEB760970FB6F894DEBF0FBECDBF0B
:101E8000A982BA82CB82DC82ED82FE820F83188720
:101E900029873A874B875C876D877E878F87988BEA
:101EA0006B857C858D859E850F8518892F8138856A
:101EB0002F30310569F1203131052CF42A303105FC
:101EC00009F050C008C024313105A9F02233310592
:101ED00009F048C041C00091E1021091E20220E007
:101EE00030E04AE754E40E9462020E942605F801AD
:101EF0007183608337C00091DD021091DE020E9481
:101F000026059B01AC01C801B9010E94580C2AC0EA
:101F100080E793E063E271E00E94481780E793E076
:101F2000B8014AE050E00E942F1880E793E06BE28E
:101F300071E00E944817E091E102F091E202012B6A
:101F400049F4128A138A148A158A81E0818B1786D4
:101F5000168608C0118A06C08091DC0291E08927AC
:101F60008093DC028091DC02882311F00E94800EB5
:101F700060960FB6F894DEBF0FBECDBFCF91DF9154
:101F80001F910F91FF90EF90DF90CF90BF90AF9097
:101F900008950F931F938C01FC01868961E00E94D4
:101FA000B216F80160857185882777FD8095982F96
:101FB0000E94F815F801868960E00E94B216F801C7
:101FC00062857385882777FD8095982F0E94F81584
:101FD0001F910F9108950F931F938C010E94EA1592
:101FE000F801628B738B848B958B808D61E00E94EE
:101FF000B216F80164817581882777FD8095982F46
:102000000E94F815F801808D60E00E94B216F80178
:10201000868597850196978786871F910F910895EA
:10202000CF93DF93EC018989882351F10E94EA154F
:102030002A893B894C895D89621B730B840B950B44
:1020400028813981442737FD4095542F26173707BB
:1020500048075907A8F48889882319F0CE010E94FF
:10206000C90FCE010E94EB0F2C853D858FEF2F3FCE
:10207000380731F08E859F85821793070CF0198AF7
:10208000DF91CF9108950F931F938C01842F28EE39
:1020900033E0F80131832083778B668B408F518F3B
:1020A00048EC50E05583448328E833E137832683A6
:1020B0002CE231E03187208753874287108A91E0F4
:1020C000918B128A138A148A158A178616862FEF27
:1020D0003FEF3587248761E00E948C16F8018689DE
:1020E00061E00E948C161F910F9108950F931F932A
:1020F000CF93DF93EC018B01E889F9892289338939
:1021000037FD0CC080899189281739073CF4220FCC
:10211000331FE20FF31FA081B1810AC089E190E073
:102120000E94E807DC018EEA92E011969C938E9360
:10213000ED91FC9111970680F781E02DCD01B8015A
:102140000995CE0161E042E050E00E94C20CDF91AF
:10215000CF911F910F910895AF92BF92CF92DF92CE
:10216000EF92FF920F931F93DF93CF93CDB7DEB71C
:102170002A970FB6F894DEBF0FBECDBF0091DF02E5
:102180001091E002D8018C910E948015F80184839F
:102190009583AC01DE011196E0EAF2E08AE001905D
:1021A0000D928150E1F7D80112966D917C911397B1
:1021B000FE01319620E030E007C0819191914817EF
:1021C000590760F02F5F3F4F26173707B4F3F80128
:1021D000108A118A128A138A2FEF3FEFD8011996BD
:1021E0003C932E9318971A968D919C911B972817C4
:1021F000390709F456C062E370E080E090E00E9485
:10220000F815F80180810E948015D80114968C93EE
:10221000149715969C93AC01DE011196E0EAF2E06A
:102220008AE001900D928150E1F7F801628173819B
:10223000FE01319620E030E007C08191919148176E
:10224000590770F02F5F3F4F26173707B4F3D801B7
:1022500050961D921D921D921C9253972FEF3FEFA7
:10226000F80131872087828593852817390709F47B
:10227000E6C03387228737FD0EC00E94EA15D801D9
:1022800050966D937D938D939C93539718968D9153
:102290009C91199745C0F801108A118A128A138AF5
:1022A000CEC0121613060CF0CAC0D80112968D913A
:1022B0009C911397281739070CF0C1C050968D9147
:1022C0009D910D90BC91A02D0097A105B10509F439
:1022D000B6C00E94EA15F801C088D188E288F38868
:1022E0006C197D098E099F0924853585442737FDA2
:1022F0004095542F261737074807590708F09FC005
:1023000086859785AA2797FDA095BA2F8C0D9D1DD0
:10231000AE1DBF1D808B918BA28BB38B8085918569
:10232000FFEF8F3F9F0709F48AC08230910589F043
:10233000833091053CF4009709F44CC0019709F0F3
:102340007EC038C083309105E1F0049709F077C072
:1023500038C0A091DD02B091DE025096ED91FC9163
:1023600051972289338980899189019728173907E4
:102370002CF42F5F3F4F338B228B15C0138A128AA8
:1023800012C0A091DD02B091DE025096ED91FC9159
:102390005197828993891816190614F080899189BA
:1023A0000197938B828BCD0161E040E050E00E9469
:1023B000C20C45C08091DD029091DE0261E070E0C8
:1023C00006C08091DD029091DE026FEF7FEF0E94E8
:1023D000761035C0E091DD02F091DE020088F189CF
:1023E000E02D2289338937FD0CC080899189281717
:1023F00039073CF4220F331FE20FF31FA081B18194
:102400000AC089E190E00E94E807DC018EEA92E0D0
:1024100011969C938E93ED91FC9111970084F18518
:10242000E02DCD0109958091E1029091E2020E9498
:10243000EB0F8091DC02882311F00E94800E8091C6
:10244000E1029091E2020E941010E090DD02F09013
:10245000DE02D70112968C911297882309F496C058
:1024600012961C92129713968C911397882339F029
:1024700014968C91882319F0C7010E94A70CD701EC
:102480005096ED91FC9151972289338937FD0CC00C
:1024900080899189281739073CF4220F331FE20FF6
:1024A000F31F008111810AC089E190E00E94E807D2
:1024B0008C018EEA92E0F80191838083D701139614
:1024C0008C91882301F180E793E06EEF70E040E0AB
:1024D00050E00E942F1880E793E060E870E040E051
:1024E00050E00E942F186AE070E080E090E00E94C7
:1024F000F815F8016281738180E793E00E94481724
:10250000D70113961C92F7018481882309F4A1C096
:1025100080E793E06EEF70E040E050E00E942F18FB
:1025200080E793E060EC70E040E050E00E942F18FC
:102530006AE070E080E090E00E94F815D801ED912B
:10254000FC910284F385E02DC8010995D801ED9135
:10255000FC91882371F00190F081E02DC80109956C
:10256000AB01BC0180E793E022E030E00E94F0186C
:102570000AC00280F381E02DC8010995BC0180E703
:1025800093E00E944817F701148263C0D7011796A1
:102590008C91882309F05DC00E94EA15F70122851D
:1025A000338544855585621B730B840B950B208501
:1025B0003185442737FD4095542F261737074807A4
:1025C000590708F046C08781882309F042C0A580DA
:1025D000B68060E8C62ED12CCA18DB08850118C069
:1025E000C701B8010E94580C00581040C60162E0B3
:1025F00070E00E949B1A600F711F882777FD8095FD
:10260000982F0E94F81501581F4F0894C11CD11C27
:10261000013811052CF7D7011696BC92AE9215978A
:1026200080E793E06CE770E040E050E00E942F18F4
:1026300080E793E060E870E040E050E00E942F18EF
:102640006AE070E080E090E00E94F81581E0F70118
:1026500087832A960FB6F894DEBF0FBECDBFCF9109
:10266000DF911F910F91FF90EF90DF90CF90BF907F
:10267000AF900895EF92FF920F931F93DF93CF9344
:10268000CDB7DEB7C858D0400FB6F894DEBF0FBE46
:10269000CDBF80E793E040E855E260E070E00E9443
:1026A000961982E190E00E94E8078C01DC011F96F8
:1026B0001C921E921E9751961C921E92509717962E
:1026C0001C92179780E395E719969C938E93189721
:1026D00076E9E72EF12C1696FC92EE921597C8013A
:1026E0000E94A70CC8010E94860C80E793E06CE76B
:1026F00070E040E050E00E942F1880E793E065E032
:1027000070E040E050E00E942F186AE070E080E046
:1027100090E00E94F815C80161E040E050E00E949E
:10272000C20C1093DE020093DD0286E190E00E946D
:10273000E807FC011182108285E090E09383828398
:102740008FEF9FEF9187808793878287178216820A
:1027500080E293E095878487F786E686108A118A5F
:10276000128A138AF093E002E093DF028AE190E09C
:102770000E94E807182F092F6CE070E04DE050E050
:102780000E9443101093E1020093E2020091DD02E7
:102790001091DE0284E190E00E94E807FC01118ABA
:1027A000108A138A128AD80151969C938E9350975F
:1027B0001E968D919C911F97892B21F41F96FC9357
:1027C000EE931E97C80161E040E050E00E94C20C09
:1027D000E091DD02F091DE02E088F188FE01719661
:1027E000FA83E983CE0180969C838B8388E7DF019F
:1027F0001D928A95E9F7A1E7B1E087E00D9001927B
:102800008150E1F7FE01789688E0DF011D928A95FC
:10281000E9F7DE019096E0E8F1E086E001900D92A4
:102820008150E1F7FE01B69689E0DF011D928A959D
:10283000E9F785EA90E00E94E8078C018EEB92E0D0
:10284000F8019183808380E391E0938382838FE01A
:1028500090E0958384838EE29FE0908F878B82E067
:1028600090E0928F818F148E138E69817A81C801D6
:102870008D960E94EA086B817C81C801CC960E94EB
:10288000EA08D70150968D919C9151978830910517
:1028900064F4FC01EE0FFF1FEE0DFF1D118300839A
:1028A000019651969C938E93509789E190E00E94F7
:1028B000E8078C018EEA92E0F8019183808380E042
:1028C00090E0A0E0BFE382879387A487B58780E08C
:1028D00090E0A0E0B0E086879787A08BB18B80E086
:1028E00090ECA8E2B8E4828B938BA48BB58B81E04B
:1028F000868B89E391E0938382838AE090E09583DD
:1029000084838EE29FE0908F878BC80140E050E087
:1029100060EA71E40E94070DD70150968D919C9159
:1029200051978830910564F4FC01EE0FFF1FEE0D06
:10293000FF1D11830083019651969C938E935097AF
:1029400089E190E00E94E8078C018EEA92E0F801AC
:102950009183808380E090E0A8ECB1E48287938744
:10296000A487B58786879787A08BB18B80E09CE78B
:10297000A2E9B9E4828B938BA48BB58B168A89E488
:1029800091E0938382838BE090E0958384838EE251
:102990009FE0908F878BC80140E050E06AE773E4C6
:1029A0000E94070DD70150968D919C9151978830C8
:1029B000910564F4FC01EE0FFF1FEE0DFF1D118366
:1029C0000083019651969C938E93509789E190E0F5
:1029D0000E94E8078C018EEA92E0F80191838083DF
:1029E00080E090E0A0E8BFE382879387A487B58763
:1029F00080E090E0A0E0B0E086879787A08BB18B65
:102A000080E090E0A8EEB1E4828B938BA48BB58B31
:102A1000168A8AE591E09383828384E190E095832E
:102A200084838EE29FE0908F878BC80140E050E066
:102A300068EE71E40E94070DD70150968D919C912C
:102A400051978830910564F4FC01EE0FFF1FEE0DE5
:102A5000FF1D11830083019651969C938E9350978E
:102A600085EA90E00E94E8078C018EEB92E0F80185
:102A70009183808384E691E09383828382E390E074
:102A8000958384838EE29FE0908F878B82E090E035
:102A9000928F818F148E138E69817A81C8018D96F1
:102AA0000E94EA086B817C81C801CC960E94EA08EA
:102AB000D70150968D919C9151978830910564F47F
:102AC000FC01EE0FFF1FEE0DFF1D11830083019629
:102AD00051969C938E9350978091DC02882311F03D
:102AE0000E94800EC857DF4F0FB6F894DEBF0FBEAE
:102AF000CDBFCF91DF911F910F91FF90EF9008957F
:102B0000982F8E3008F09E50977080919F0282958A
:102B1000880F880F807C892B80937C0080917A00BD
:102B2000806480937A0080917A0086FDFCCF2091AA
:102B3000780040917900942F80E030E0282B392BE9
:102B4000C90108951F920F920FB60F9211242F936F
:102B50003F938F939F93AF93BF938091E7029091A0
:102B6000E802A091E902B091EA023091EB020196ED
:102B7000A11DB11D232F2D5F2D3720F02D5701965C
:102B8000A11DB11D2093EB028093E7029093E80210
:102B9000A093E902B093EA028091E3029091E402EB
:102BA000A091E502B091E6020196A11DB11D8093AE
:102BB000E3029093E402A093E502B093E602BF9192
:102BC000AF919F918F913F912F910F900FBE0F90DA
:102BD0001F9018958FB7F8942091E7023091E80282
:102BE0004091E9025091EA028FBFB901CA010895EC
:102BF0009B01AC017FB7F8948091E3029091E402CD
:102C0000A091E502B091E60266B5A89B05C06F3FB2
:102C100019F00196A11DB11D7FBFBA2FA92F982FC2
:102C20008827860F911DA11DB11D62E0880F991F95
:102C3000AA1FBB1F6A95D1F7BC012DC0FFB7F8943E
:102C40008091E3029091E402A091E502B091E60246
:102C5000E6B5A89B05C0EF3F19F00196A11DB11D77
:102C6000FFBFBA2FA92F982F88278E0F911DA11D66
:102C7000B11DE2E0880F991FAA1FBB1FEA95D1F78B
:102C8000861B970B885E9340C8F22150304040402D
:102C9000504068517C4F211531054105510571F6B1
:102CA0000895789484B5826084BD84B5816084BDC4
:102CB00085B5826085BD85B5816085BDEEE6F0E0B5
:102CC000808181608083E1E8F0E010828081826011
:102CD0008083808181608083E0E8F0E08081816092
:102CE0008083E1EBF0E0808184608083E0EBF0E0C2
:102CF000808181608083EAE7F0E080818460808366
:102D0000808182608083808181608083808180680F
:102D100080831092C1000895482F50E0CA01865662
:102D20009F4FFC0124914A575F4FFA0184918823F9
:102D3000C1F0E82FF0E0EE0FFF1FE859FF4FA5911B
:102D4000B491662341F49FB7F8948C912095822327
:102D50008C939FBF08959FB7F8948C91822B8C938E
:102D60009FBF0895482F50E0CA0182559F4FFC0134
:102D70002491CA0186569F4FFC0134914A575F4FF8
:102D8000FA019491992309F444C0222351F123308C
:102D900071F0243028F42130A1F0223011F514C054
:102DA0002630B1F02730C1F02430D9F404C080912E
:102DB00080008F7703C0809180008F7D809380009A
:102DC00010C084B58F7702C084B58F7D84BD09C0E3
:102DD0008091B0008F7703C08091B0008F7D809389
:102DE000B000E92FF0E0EE0FFF1FEE58FF4FA59166
:102DF000B491662341F49FB7F8948C913095832366
:102E00008C939FBF08959FB7F8948C91832B8C93DC
:102E10009FBF08950E9451160E943A130E94AC1061
:102E2000FDCF0F931F93CF93DF938C01EB0109C06C
:102E30002196D801ED91FC910190F081E02DC8011F
:102E4000099568816623A1F7DF91CF911F910F91BA
:102E50000895EF92FF920F931F93CF93DF938C010E
:102E60007B01EA010CC0D7016D917D01D801ED9184
:102E7000FC910190F081E02DC801099521972097E0
:102E800091F7DF91CF911F910F91FF90EF900895EF
:102E9000DC01ED91FC910280F381E02D099508950C
:102EA0002F923F924F925F926F927F928F929F925A
:102EB000AF92BF92CF92DF92EF92FF920F931F9348
:102EC000DF93CF93CDB7DEB7A0970FB6F894DEBFF0
:102ED0000FBECDBF1C016A017B0141155105610583
:102EE000710549F440E350E060E070E020E030E03C
:102EF0000E94F91756C0882499245401422E552463
:102F00006624772401E010E00C0F1D1F080D191D29
:102F1000C701B601A30192010E94AE1AF8016083B5
:102F20000894811C911CA11CB11CC701B601A3010E
:102F300092010E94AE1AC901DA016C017D01C1142F
:102F4000D104E104F104F1F681E0E82EF12CEC0E5D
:102F5000FD1EE80CF91C3E010894611C711CD50192
:102F6000C4010197A109B1096C01C818D90816C09C
:102F7000F601EE0DFF1D40814A3010F4405D01C0A6
:102F8000495C552747FD5095652F752FC10120E0FD
:102F900030E00E94F9170894E108F1086E147F04EC
:102FA00039F7A0960FB6F894DEBF0FBECDBFCF9114
:102FB000DF911F910F91FF90EF90DF90CF90BF9026
:102FC000AF909F908F907F906F905F904F903F90C9
:102FD0002F900895DC012115310541F4ED91FC910C
:102FE0000190F081E02D642F099508950E945017FB
:102FF0000895EF92FF920F931F93CF93DF93EC010D
:103000007A018B012115310541F4E881F9810190A4
:10301000F081E02D642F09951BC02A303105B1F4F1
:1030200077FF10C04DE250E060E070E020E030E05B
:103030000E94F91710950095F094E094E11CF11CA2
:10304000011D111DCE01B801A7012AE00E945017F1
:10305000DF91CF911F910F91FF90EF900895EF9224
:10306000FF920F931F937B019A010027F7FC0095B5
:10307000102FB801A7010E94F9171F910F91FF901F
:10308000EF9008950F931F938C014DE050E060E0A6
:1030900070E020E030E00E94F917C8014AE050E0FB
:1030A00060E070E020E030E00E94F9171F910F917E
:1030B00008950F931F938C010E944817C8010E9426
:1030C00042181F910F9108959F92AF92BF92CF9295
:1030D000DF92EF92FF920F931F93CF93DF93EC0158
:1030E0007A018B01922ECB01BA0120E030E040E062
:1030F00050E00E94980488236CF4CE014DE250E029
:1031000060E070E020E030E00E94F91717FB1095B6
:1031100017F9109520E030E040E05FE3AA240BC0EF
:10312000CA01B90120E030E040E251E40E945C03B2
:103130009B01AC01A394A91498F3C801B7010E94A4
:1031400035025B016C010E948C007B018C01CE0179
:10315000B801A7012AE030E00E94EA17992029F07F
:10316000CE016FE871E00E944817C801B7010E94C4
:103170007A059B01AC01C601B5010E94040222C080
:1031800020E030E040E251E40E9462027B018C01C9
:103190000E9426055B016C01CC24B7FCC094DC2C9A
:1031A000CE01B601A5012AE030E00E94F917C60160
:1031B000B5010E94C8049B01AC01C801B7010E947F
:1031C00004029A949920E1F6DF91CF911F910F911B
:1031D000FF90EF90DF90CF90BF90AF909F900895B9
:1031E0000E94641808950F931F93CF93DF93FC01FF
:1031F0008B0141155105A1F06115710589F084819C
:103200009581EA0121978C179D0708F4EC016081F4
:103210007181C801AE010E94F108C00FD11F188250
:10322000DF91CF911F910F910895CF93DF93EC0120
:10323000CB017B836A8301960E94E8079983888388
:10324000009721F41B821A821D821C82DF91CF918C
:103250000895EF92FF920F931F93DF93CF93CDB713
:10326000DEB7A1970FB6F894DEBF0FBECDBF8C01BD
:10327000CB017E010894E11CF11CB7010E940009FA
:10328000F70101900020E9F73197EE19FF09D80105
:103290001596FC93EE931497C801BF010E9415196F
:1032A000F80180819181009719F0B7010E94EA0826
:1032B000A1960FB6F894DEBF0FBECDBFCF91DF91C0
:1032C0001F910F91FF90EF9008951F920F920FB6EC
:1032D0000F9211242F933F934F938F939F93EF93CC
:1032E000FF934091C600E0916C03F0916D0331961D
:1032F0009F012F773070319780916E0390916F030B
:103300002817390739F0E451FD4F408330936D039E
:1033100020936C03FF91EF919F918F914F913F917B
:103320002F910F900FBE0F901F901895CF93DF93A2
:10333000EC019A01AB01E885F985203081EE380770
:1033400080E0480780E0580709F449C081E090E038
:103350000A8802C0880F991F0A94E2F7808360E010
:1033600079E08DE390E00E94D01A21503040404037
:103370005040CA01B90122E030E040E050E00E9434
:10338000D01AEC81FD813083EE81FF812083EA85B4
:10339000FB85208141E050E0CA010E8402C0880F05
:1033A000991F0A94E2F7282B2083EA85FB85208168
:1033B000CA010F8402C0880F991F0A94E2F7282BD4
:1033C0002083EA85FB858081088802C0440F551F51
:1033D0000A94E2F7842B8083DF91CF9108951082C5
:1033E00020E130E0CECFDC011296ED91FC911397F5
:1033F000E058FF4F2191319180819181281B390B39
:103400002F773070C9010895DC011296ED91FC917F
:103410001397EE57FF4F2081318192918291E058AE
:10342000F0408217930719F42FEF3FEF05C0E20F2A
:10343000F31F8081282F30E0C9010895DC01129626
:10344000ED91FC911397DF01AE57BF4F2D913C9149
:103450001197E058FF4F80819181E058F04082172A
:10346000930719F42FEF3FEF0BC0E20FF31F80819A
:103470002F5F3F4F2F7730702D933C93282F30E0F4
:10348000C9010895DC011296ED91FC911397EE5756
:10349000FF4F80819181929382930895FC01A085D2
:1034A000B18521898C9190E0022E02C09595879577
:1034B0000A94E2F780FFF6CF0484F585E02D60835F
:1034C00008958EEC92E090937103809370038CEEDC
:1034D00092E0909373038093720385EC90E0909355
:1034E00075038093740384EC90E09093770380934A
:1034F000760380EC90E0909379038093780381ECDD
:1035000090E090937B0380937A0386EC90E0909315
:103510007D0380937C0384E080937E0383E080932B
:103520007F0387E08093800385E08093810381E0BF
:1035300080938203089597FB092E07260AD077FD12
:1035400004D049D006D000201AF4709561957F4FC1
:103550000895F6F7909581959F4F0895A1E21A2E50
:10356000AA1BBB1BFD010DC0AA1FBB1FEE1FFF1F27
:10357000A217B307E407F50720F0A21BB30BE40B77
:10358000F50B661F771F881F991F1A9469F76095BE
:103590007095809590959B01AC01BD01CF01089578
:1035A00097FB092E05260ED057FD04D0D7DF0AD091
:1035B000001C38F450954095309521953F4F4F4F62
:1035C0005F4F0895F6F790958095709561957F4FC0
:1035D0008F4F9F4F0895AA1BBB1B51E107C0AA1F25
:1035E000BB1FA617B70710F0A61BB70B881F991FA4
:1035F0005A95A9F780959095BC01CD0108952F9219
:103600003F924F925F926F927F928F929F92AF9272
:10361000BF92CF92DF92EF92FF920F931F93CF93BF
:10362000DF93CDB7DEB7CA1BDB0B0FB6F894DEBF56
:103630000FBECDBF09942A88398848885F846E847C
:103640007D848C849B84AA84B984C884DF80EE80C6
:10365000FD800C811B81AA81B981CE0FD11D0FB6CF
:10366000F894DEBF0FBECDBFED010895EE0FFF1F32
:0C3670000590F491E02D0994F894FFCF30
:10367C000A0A2530347520253034752025303475F0
:10368C00203A20757365642F667265652F6C6172C4
:10369C0067650053746174653A2000202E200A007F
:1036AC00416374697669747900496E7465727661E8
:1036BC006C20287365637329004578706F7375727D
:1036CC006520286D7365637329004261636B6C69B7
:1036DC00676874004D656D6F72792044656275671B
:1036EC0000537461727400000000000000000000C0
:1036FC0053746F7000000000000000000000002EEA
:10370C00000000000000000000000102020303039F
:10371C000304040404040404040505050505050557
:10372C000505050505050505050606060606060636
:10373C00060606060606060606060606060606061D
:10374C000606060606060606060707070707070706
:10375C0007070707070707070707070707070707ED
:10376C0007070707070707070707070707070707DD
:10377C0007070707070707070707070707070707CD
:10378C0007070707070707070708080808080808B6
:10379C00080808080808080808080808080808089D
:1037AC00080808080808080808080808080808088D
:1037BC00080808080808080808080808080808087D
:1037CC00080808080808080808080808080808086D
:1037DC00080808080808080808080808080808085D
:1037EC00080808080808080808080808080808084D
:1037FC00080808080808080808080808080808083D
:10380C0008080808080808080820008703000001B9
:10381C003200C800900158022003000000000D0C7B
:10382C00440E070D150C410C420C000000000D0C51
:10383C00450C070D1C0E160E560C000000004E1AFF
:0C384C0011172917F3191E1A041A421A4A
:00000001FF
